:020000040800F2
:10000000F0530020B9030008ED4B00081148000828
:10001000E94B0008131F0008755800080000000095
:10002000000000000000000000000000F9020008CD
:100030004B21000800000000550300088D4F000808
:10004000D3030008D3030008D3030008D303000838
:10005000D3030008D3030008D3030008D303000828
:10006000D3030008D3030008D3030008D11F0008FE
:10007000E11F0008D3030008F11F0008D3030008A4
:10008000D303000801200008D3030008D3030008AD
:10009000191F0008D3030008D3030008D303000886
:1000A000D3030008D3030008D3030008D3030008D8
:1000B000D3030008D3030008D3030008D3030008C8
:1000C000D3030008D3030008D3030008D3030008B8
:1000D000D30300089D570008D3030008D30300088A
:1000E000D3030008D3030008D3030008D303000898
:1000F000D3030008D3030008D3030008D303000888
:10010000D3030008D3030008D3030008D303000877
:10011000D3030008D3030008D3030008D303000867
:10012000D30300081120000821200008D303000891
:10013000D3030008D3030008D3030008D303000847
:10014000D3030008D3030008D3030008D303000837
:10015000D303000831200008D30300080D5800081D
:10016000D3030008D3030008D3030008D303000817
:10017000D3030008D3030008D303000800000000E5
:10018000D3030008D3030008D3030008D3030008F7
:10019000D3030008D3030008D3030008D3030008E7
:1001A0000000000000000000D303000800F002F887
:1001B00000F092F80AA090E8000C82448344AAF16F
:1001C0000107DA4501D100F087F8AFF2090EBAE86D
:1001D0000F0013F0010F18BFFB1A43F0010318477B
:1001E000A4940000C4940000103A24BF78C878C1D9
:1001F000FAD8520724BF30C830C144BF04680C602D
:10020000704700000023002400250026103A28BF74
:1002100078C1FBD8520728BF30C148BF0B60704778
:100220006E2900F0BD82702900F0FF83662908F076
:10023000CC86652908F0C986672908F0C686612939
:1002400008F0C58603681B0A28BF41F080016929B0
:1002500000F06A82642900F06782752900F06482E8
:100260006F2900F08C83782900F0CB83E92900F016
:100270002783E42900F02483F52900F02183EF2966
:1002800000F08983F82900F0CA830368DB0928BFDE
:1002900041F08001632901F0D180732901F0D680FB
:1002A000E32901F0E180F32901F0E68000207047A6
:1002B0001FB508F080FE01F035F904000020002190
:1002C00008F01CF8401C60600020002108F000F8D5
:1002D000E0601FBD10B510BD01F0F6F81146FFF744
:1002E000E7FF06F043FD01F0D3F903B4FFF7F2FF97
:1002F00003BC01F017FA00002C4B19680868B0E83D
:10030000F04F80F30988BFF36F8F4FF0000080F348
:10031000118870470000000008480068006880F3FA
:1003200008884FF0000080F3148862B661B6BFF30E
:100330004F8FBFF36F8F00DF00BF00BF08ED00E0FD
:10034000DFF80C00016841F470010160704700BFE4
:1003500088ED00E0EFF30980BFF36F8F134B1A684D
:100360001EF0100F08BF20ED108A20E9F04F10603A
:1003700009B44FF0500080F31188BFF34F8FBFF3E3
:100380006F8F07F0CBFC4FF0000080F3118809BCA1
:1003900019680868B0E8F04F1EF0100F08BFB0EC05
:1003A000108A80F30988BFF36F8F704784000020A4
:1003B000EFF305807047000009488047094800476F
:1003C000FEE7FEE7FEE7FEE7FEE7FEE7FEE7FEE705
:1003D000FEE7FEE704480549054A064B7047000062
:1003E00055500008AD010008F04D0020F0530020EA
:1003F000F04F0020F04F002053EA020C00F069801B
:100400002DE9F04B4FF00006002B1FBFB3FA83F528
:1004100003FA05F424FA05F65E4012BF1643B2FA59
:1004200082F502FA05F4C5F120051EBF22FA05FC8B
:1004300044EA0C04203556EA044C4FEA144418BF31
:10044000641C4FF000084FF00009904271EB030C60
:1004500039D3002919BFB1FA81F701FA07F6B0FACA
:1004600080F700FA07F6C7F120071EBF20FA07FC45
:1004700046EA0C062037B6FBF4FCA7EB0507103F55
:1004800007F01F0BCBF120060CFA0BFB2CFA06F63B
:1004900044BFB3460026202FA4BF5E464FF0000B9A
:1004A0005BEA060C08BF4FF0010B19EB0B09ABFB25
:1004B000027C48EB0608C01B06FB02CC0BFB03CCFE
:1004C00071EB0C01C1E70B46024641464846BDE8C8
:1004D000F08B13B54FF000004FF00001AFF3008038
:1004E000BDE81C40704700001CB50C46064B7B4421
:1004F00069460090204600F06CF9044600206946E9
:1005000000F07AF920461CBD07030000032A40F2E0
:10051000308010F0030C00F0158011F8013BBCF1A5
:10052000020F624498BF11F801CB00F8013B38BFBD
:1005300011F8013BA2F1040298BF00F801CB38BFCB
:1005400000F8013B11F0030300F02580083AC0F0E9
:10055000088051F8043B083A51F804CBA0E8081091
:10056000F5E7121D5CBF51F8043B40F8043BAFF3C4
:100570000080D20724BF11F8013B11F801CB48BF1E
:1005800011F8012B24BF00F8013B00F801CB48BF54
:1005900000F8012B704710B5203AC0F00B80B1E88D
:1005A0001850203AA0E81850B1E81850A0E81850A8
:1005B000BFF4F5AF5FEA027C24BFB1E81850A0E8B1
:1005C000185044BF18C918C0BDE810405FEA827CCB
:1005D00024BF51F8043B40F8043B08BF7047D207E2
:1005E00028BF31F8023B48BF11F8012B28BF20F883
:1005F000023B48BF00F8012B70474FF0000200B5E6
:10060000134694469646203922BFA0E80C50A0E835
:100610000C50B1F12001BFF4F7AF090728BFA0E8E3
:100620000C5048BF0CC05DF804EB890028BF40F8AF
:10063000042B08BF704748BF20F8022B11F0804FF1
:1006400018BF00F8012B704770477047704710B50E
:1006500000F0BAFA006810BD10B5044600F0B4FA14
:10066000046010BD70B5044685690068C10601D5F7
:10067000302600E02026C00707D070BDD4E9012154
:1006800030469047206A401C20626D1EF6D570BD32
:1006900070B5044685690078C00707D170BDD4E9FC
:1006A000012120209047206A401C20626D1EF6D553
:1006B00070BD09684A0501D540B27047C905FCD52F
:1006C00000B2704709684A0501D5C0B27047C90534
:1006D000FCD580B2704770B50C460546012A05D09E
:1006E0002878800600D5EA69002302E0012305E0AE
:1006F0005B1C934202D2E05C0028F9D1A869E6189D
:10070000C01AA861286A184428622846FFF7AAFF81
:1007100004E0D5E9012114F8010B9047B442F8D365
:100720002846FFF7B5FF70BD2DE9F04106460024CD
:1007300010687529314616A510D0FFF7BAFF0028BA
:1007400002DA404213A507E031688A0701D512A5F5
:1007500002E0490704D511A5012401E0FFF7B2FF2B
:1007600000210A2206F1240709E0B0FBF2FCB0FBED
:10077000F2F302FB1C00303078541846491C002864
:10078000F3D123462A463046BDE8F04100F065BA71
:10079000000000002D0000002B00000020000000E1
:1007A00011680268006A530501D508700AE0D30594
:1007B00001D5088006E0130603D5C217C1E900027F
:1007C00000E008600120704701694A1C0261087856
:1007D000704700B58FB0CDE9013100210591054981
:1007E0007944CDE903101146684600F029F90FB0AD
:1007F00000BD0000E5FFFFFF0A6802F8010B0A6078
:10080000704700002DE9FF5F15468A460446DFF871
:10081000AC80F8440027D8E900103E46CDE900102E
:1008200010E03AF816106A4602A800F029FE411CB2
:1008300007D02178890603D5E269391891420DD88D
:100840000744761C2078800602D5E069B84205DDB1
:10085000AE42E6DB3AF816000028E2D1A069C01BE0
:10086000A0612046FFF7FEFED8E90010CDE9001098
:10087000002017E03AF818106A4602A800F000FEBF
:10088000B0F1FF3F81460BD000250DF1080B05E0CC
:10089000D4E901211BF8050090476D1C4D45F7D3A5
:1008A00008F10100B0428046E4DB206A384420624F
:1008B0002046FFF7EDFEBDE8FF9F00006E8B0000B5
:1008C0002DE9F0418046D21D22F007020025D2E931
:1008D0000002F52915A614D0011E72F1000106DAF6
:1008E0000023D0EB030063EB020211A608E0D8F866
:1008F00000108B0701D50FA602E0490701D50EA60F
:1009000001251146002408F1240704E000F060F9F5
:1009100030323A55641C50EA0102F7D12B46324678
:1009200021464046BDE8F04100F097B900000000C4
:100930002D0000002B0000002000000030B400213A
:1009400000F1240408E002F00705D208303542EA3D
:100950004372DB086554491C52EA0305F3D104686D
:10096000002310A2250707D5A40600D421B1C4692D
:1009700001230DA2641EC46130BC00F06EB910B535
:10098000044621461068FFF79DFE02462046BDE85A
:1009900010400023D2E7D21D22F00701D1E9002345
:1009A000CCE700000000000030000000F0B40D466D
:1009B0000188090502D5214C7C4402E01F4C7C448F
:1009C0000E34002100F1240608E002F00F0712099E
:1009D000E75D42EA03721B097754491C52EA030798
:1009E000F3D102780023120704D5702D06D009B187
:1009F000022311342246F0BC00F02FB90123103439
:100A0000F8E770B504460D4621461068FFF75AFE18
:100A1000024629462046BDE870400023C6E7D21DA5
:100A200022F00703D3E90023C0E70368126843F00C
:100A3000200303600823C3610023B7E7D0890000C7
:100A40002DE9F05F894604464FF0000ADFF874B1E3
:100A5000FB44C0F820A02046E1688847002874D0F5
:100A6000252806D0D4E901219047206A401C206245
:100A7000F1E700265F462046E168884720280546C2
:100A800007DB312D05D2781910F8200C08B1064388
:100A9000F1E7B00701D526F00406C4F81CA0002732
:100AA000C4F818A02A2D09D0284605F079FE38B3DD
:100AB00004EB8708303DC8F8185019E059F8041BBA
:100AC000204604EB87029161E1688847012F0546C3
:100AD00018D1E069002820DA26F020061DE0D8F8B9
:100AE000180000EB800005EB40003038C8F8180013
:100AF0002046E1688847054605F052FE0028EED101
:100B0000012F0AD02E2D08D12046E16888477F1C8E
:100B10000546022F46F02006C4DBA069002803DA50
:100B2000404246F00106A061F00701D026F0100611
:100B30006C2D0BD0682D09D04C2D39D06A2D35D0B5
:100B4000742D35D07A2D33D016E038E0E1682F4689
:100B500020468847B842054609D16C2F26D04FF46D
:100B60008060E168064320468847054604E06C2F14
:100B70001AD04FF4807006430DB3A5F14100192837
:100B800002D8203546F400664A46294620462660AB
:100B90004E46FFF745FB80B101280BD0F61D26F02D
:100BA000070000F1080956E74020E4E78020D8E775
:100BB0000020D6E706F104094DE7284652E7206AEF
:100BC000BDE8F09F60890000004870478C4D002010
:100BD00030B5B0F10A024FEA900E71F100034EEA0F
:100BE000817EB0EB0E0061EB91014FEA101E4EEAE0
:100BF000017E10EB0E0041EB11114FEA102E4EEA70
:100C0000016E10EB0E0041EB11214FEA104E4EEA3F
:100C1000014E10EB0E0041EB1141401841F1000173
:100C20004FEAD00040EA41704FEAD10110EB800555
:100C30004FEA810444EA907444EB01046D1944EBDB
:100C40000404521BA3414FF0000348BF0A3200D5F1
:100C500030BD401C41F1000130BD2DE9F0470D468B
:100C600099469246044600F124080168880604D596
:100C7000E06921F01001216000E00120A84201DDBF
:100C8000471B00E00027A1697A1902EB0900081A46
:100C9000A0612078C00602D42046FFF7E3FC0026BE
:100CA00008E0D4E901211AF806009047206A401CA8
:100CB000761C20624E45F4DB2078C0060AD520461B
:100CC000FFF7D0FC06E0D4E9012130209047206AEC
:100CD000401C2062381EA7F10107F4DC07E0D4E9CC
:100CE000012118F805009047206A401C2062281E48
:100CF000A5F10105F3DC2046FFF7CAFC20780006C9
:100D000002D50220BDE8F0870120FBE770472DE9FE
:100D1000FF4F0C461E464FF0FF378BB0D2E9000163
:100D2000DDF860800A908A46C1F30A5505B93D4650
:100D3000002108464FF00000BAF1000F00F4400017
:100D400005DA00EB80004FF4400101EA50004FEA61
:100D50009059B9F1010F00DDB9460A9850EA4A00EE
:100D60000ED044F61050A5F2FF3545432F14B8F1CC
:100D7000000F1ED07542291E1EDDC9F100021CE0C5
:100D8000B8F1010F4FF0000001D0302103E0F24331
:100D900005E02154401CB042FBDB3046002200211C
:100DA00021540B99C1F80880C1E900200FB0BDE8BB
:100DB000F08FBD1B6D1CDEE74A4600DA694206A8CB
:100DC00000F0F4FB06AB93E8070003AB83E80700F1
:100DD00050460A9900F0ADFC8DE80700A0F50050E0
:100DE0001F3800900398002D0ADD42F21F014A4689
:100DF0000844002303A90390684600F016FF09E0A9
:100E0000A0F500504A461F38002303A90390684606
:100E100000F020FF8DE807000004000C03D04FF025
:100E2000FF30410800E01046B8F1000F03D0002267
:100E3000009215461EE0751E05D4FFF7C9FE30323C
:100E400062556D1EF9D5B3460122084302D0002237
:100E50007F1C04E02078302801D100227F1E002A68
:100E6000099784D01DE0112D07DAFFF7B1FE30326B
:100E700062556D1C50EA0102F5D1084302D000987A
:100E8000C8B10EE00021681E05E0235C625C63547B
:100E90002254401E491C8142F7DBAB46A81B401E72
:100EA0000990002004F80B000B98099AC0F80880FC
:100EB000C0E9002B7AE711264FF0000857E72DE92B
:100EC000F04F88460446D21D22F0070191B0D1E9C7
:100ED0000001CDE90A0104F008FD02460B98C00F9D
:100EE00001D02D2007E02068810701D52B2002E0EA
:100EF000202101EAC000032A099001D0072A05DB5E
:100F000003464146204600F011FB0BE120788006A5
:100F100001D5E06900E00620B8F1650F814606D0F2
:100F2000B8F1660F18D0B8F1670F70D131E000202A
:100F3000B9F1110F009001DB112301E009F1010368
:100F40000AAA01A90CA8FFF7E2FEDDE90C70002651
:100F500009F10105834647E001204B4600904FF020
:100F600000470AAA01A90CA8FFF7D1FEDDE90DB0E0
:100F70000C995D46002610B909F101000D18B9EB76
:100F8000050003D4C0F1FF3609F10105A5EB090006
:100F90002BE0B9F1010F01DA4FF001090020B9F19E
:100FA000110F0090484601DD112300E003460AAA14
:100FB00001A90CA8FFF7ABFEDDE90C704D46002639
:100FC0008346207800070AD4AB4500DA5D4601A8C5
:100FD000012D04DD411911F8011C302907D04F45BE
:100FE00002DA17F1040F04DA012082460FE06D1EC9
:100FF000EEE7002F02DCED1B3E4403E0781CA84224
:1010000000DD7D1CB81B00F1010A4FF0004720787D
:10101000000703D4AA4501DB4FF0FF3A0021B7F1E6
:10102000004F0DF143088DF8431024D002202B23EC
:10103000002F01DA7F422D230A21021EA0F10100B8
:1010400000DC5FB197FBF1FC97FBF1F201FB1C7C2C
:1010500017460CF1300C08F801CDEEE7A8F10100BD
:1010600003702188090501D5452100E06521A0F123
:10107000010800F8011C09980FA9A1EB0807FF1D42
:1010800000B10120411901EBEA70A1693844081A46
:10109000401EA0612078C00602D42046FFF7E2FA85
:1010A000099828B1D4E901219047206A401C2062A8
:1010B0002078C00622D52046FFF7D4FA1EE0002E85
:1010C00004DBB34502DD01A8805D00E03020D4E9F7
:1010D00001219047206A401C2062761CAAF1010081
:1010E0005FEA000A0AD100F01DFAC0680168405C9E
:1010F000D4E901219047206A401C2062281EA5F1F6
:101100000105DCDC07E0D4E9012118F8010B904768
:10111000206A401C2062381EA7F10107F3DC20463C
:10112000FFF7B6FA032011B041E600002DE9F04FB9
:1011300004460D46D21D22F0070089B0D0E9009781
:101140004846394604F0D1FB0246F80F01D02D2362
:1011500007E02068810701D52B2302E0202101EA66
:10116000C0038DF820300BB1012000E00020032ADD
:10117000824601D0072A04DB2946204600F0D6F932
:101180003FE12078800601D40D2500E0E569C7F332
:101190000A560D2D49DA00214FEA175B08464FF039
:1011A0000000002F00F4400007DA00EB80004FF44D
:1011B000400100EBD07001EA60008115012901DDDA
:1011C0004FF0FF3100224FEA850CBCF1180F06D317
:1011D0001346ACF118004FF08052C24003E04FF4C8
:1011E000801323FA0CF30CF10C0CBCF1200F04D388
:1011F000ACF1200C09FA0CF001E007FA0CF0002920
:101200004FF0004801DD18B90FE00ED140450CD376
:1012100019EB02095F4121B9404502D19F4329EAF8
:101220000209BBEB175F00D0761C2088000502D5B1
:101230007B48784402E07A487844193808AA302379
:1012400002F80A30037C0AF10101002E0AF1020AB9
:1012500053546A4602DC4FF0300101E04FF0310197
:101260004FF001088DF8001002D0A6F2FF3603E01F
:1012700059EA470100D06B4E002D02DC21780907A6
:1012800004D54FF002082E218DF80110C44600212C
:101290000BE0C7F303433F01C35C491C6D1E02F81A
:1012A0000830052908F1010801DA002DF1DC0021E0
:1012B0000CE000EB1973491C1B786D1E082902F81D
:1012C00008304FEA091908F1010801DA002DF0DCB5
:1012D00021688B0602D516E0A8F10108E04505DD7E
:1012E00002EB080313F8013C302BF5D0B8F1000FE6
:1012F00009DD02EB080313F8013C2E2B03D109078B
:1013000001D4A8F10108002D05DD3E2102F80810E6
:101310006D1E08F10108407C002E02F8080008F15B
:10132000010804DA2D20764202F8080002E02B20A2
:1013300002F808000A214FF47A70864208F1010889
:101340000BDB96FBF0F3303302F8083096FBF0F33A
:1013500008F1010800FB136601E0642E0CDB642039
:1013600096FBF0F3303302F8083096FBF0F308F107
:10137000010800FB136601E00A2E06DB96FBF1F084
:10138000303002F8080008F1010896FBF1F001FB8B
:101390001060303002F80800A16908F1010808EB7C
:1013A000050202EB0A00081AA0612078C00602D4E8
:1013B0002046FFF757F9216A08AE01EB0A002062C8
:1013C00004E0D4E9012116F8010B9047BAF1010AB3
:1013D000F7D22078C00602D52046FFF743F96E46C3
:1013E00009E016F8010B3E280FD0D4E901219047FF
:1013F000206A401C2062B8F10108F2D22046FFF7B3
:1014000047F909B00320BDE8F08F206A2844206224
:1014100003E0D4E90121302090476D1EEBD3F8E7BB
:101420006583000002FCFFFF10B5436913B1AFF301
:10143000008001E0FFF74FF9012010BD127800F1A4
:1014400024010A7000224A700122EDE711684FF072
:10145000FF32E9E710B5436913B1AFF3008001E053
:10146000FFF7D0F9012010BD128800F12401828419
:101470000022C2840122EDE711684FF0FF32E9E754
:1014800070B516460C46054600F044F8036893F81C
:101490000101012806D0FF2C0FD8185D68B101208A
:1014A0002C7070BDD3F807013246214603F20713B2
:1014B00003442846BDE8704018474FF0FF3070BD28
:1014C000004870478C4D00207546FFF7F9FFAE4687
:1014D00005006946534620F00700854618B020B540
:1014E000FEF778FFBDE820404FF000064FF0000700
:1014F0004FF000084FF0000B21F00701AC46ACE8BC
:10150000C009ACE8C009ACE8C009ACE8C0098D4628
:101510007047000010B500F005F8001D10BD00BFB9
:10152000DD6D000000487047AC4D00202DE9F04112
:101530001F46044603260168072A01F4006004DB05
:1015400008B116A505E016A503E008B115A500E051
:1015500015A521F010002060A069C01EA0610FB188
:10156000401EA0612046FFF77DF84FB1D4E901216C
:1015700038469047206A401C2062C01C206206E06A
:10158000206AFAE7D4E9012115F8010B9047761E8D
:10159000F8D22046FFF77CF8BDE8F0814E414E00BE
:1015A0006E616E00494E4600696E66002DE9F04797
:1015B000814616468AB0354878440DC88DE80D003E
:1015C00032487844801C03AC0DC884E80D0041F615
:1015D0009B300844372190FBF1F290FBF1F5A5F127
:1015E000800501FB12041B3C02D56442012000E08F
:1015F0000020DFF898A080460027FA44AAF1BE0A2E
:101600000EE0E0070AD03246684607EB47010123A7
:101610000AEB810100F01EFB8DE8070064107F1CBF
:10162000002CEED1194F7F44AE3F19E0E80715D0EA
:1016300007EB04100DF1180A90E80E008AE80E007E
:10164000C068F04201D1981908903246012306A9DA
:1016500003A800F0FFFA03AB83E807006D10641CD9
:10166000002DE3D14FF0010332466946B8F1000F77
:1016700003A802D000F0D9FA01E000F0EBFAC9E9C2
:101680000001C9F808200AB0BDE8F08770800000AA
:1016900010B50446AFF300802046BDE81040FEF7C9
:1016A00024BE00004FF0013C50F8042B51F8043BDD
:1016B0009A4221D1A2EB0C03934313EACC1317D126
:1016C00050F8042B51F8043B9A4215D1A2EB0C03BD
:1016D000934313EACC130BD150F8042B51F8043B7D
:1016E0009A4209D1A2EB0C03934313EACC13DBD04B
:1016F0004FF00000704700BFD01A01BAB1FA81F173
:1017000001F0180122FA01F0CB40C1F12001DBB257
:10171000C0B2C01A2CFA01F3D11A914311EAC311D5
:10172000E6D1704701491820ABBEFEE72600020053
:1017300070475FEA400C08BF91F0000F4FEA8C231E
:101740004FEAC12243EA51514FEA1C5018BF00F53D
:10175000F0404FEA300018BF41F000415FEA6C5C96
:1017600000F02980BCF1FF3F08BF40F08040704787
:10177000130C06BF12044FF0100C4FF0000C130EA8
:1017800004BF12020CF1080C130F04BF12010CF17C
:10179000040C930F04BF92000CF1020CD30F04BF92
:1017A00052000CF1010C11464FF00002A0F11F0095
:1017B000A0EB0C00704711F0004F08BF704731F0EC
:1017C00000413FF4D5AF0B0C06BF09044FF0100CDD
:1017D0004FF0000C0B0E04BF09020CF1080C0B0FAC
:1017E00004BF09010CF1040C8B0F04BF89000CF13C
:1017F000020CCB0F04BF49000CF1010CCCF120030B
:10180000A0EB0C0022FA03F302FA0CF241EA030106
:1018100000F10100704720F07F4C80EA030023F0C4
:101820007F47ACEB070303F57C5300F0004003F166
:10183000FF032DE980494FEA154B09B44FEA1443E1
:1018400025EA0B4E24EA03480FF2042606EB132781
:1018500049083E785FEA320203FB0667C7F50007D6
:1018600007FB06F64FEA54374FEAD64606F1020662
:1018700007FB066CCCF1005C4FEA1C472CEA074CD6
:1018800007FB06F40CFB06F504EB15464FEA96162B
:1018900034BF00204FF000404FEAD13706FB07FC71
:1018A0004FEA1C4C0CFB0BF7D21B03FB0CF761EB54
:1018B00007010CFB0EF7B0EB074072EB17420CFB75
:1018C00008F734BFA2EB0742B2EB074261EB1741C6
:1018D0004FEA0C444FEA910706FB07FC4FEA1C4C09
:1018E0000CFB0BF7B0EBC74072EB573203FB0CF766
:1018F00034BFA2EBC742B2EBC74261EB57310CFBDE
:101900000EF7B0EBC70072EB57720CFB08F734BF51
:10191000A2EBC702B2EBC70261EB5771039F4FEA1C
:10192000816141EA921104EBCC044FEAD1374FEACE
:10193000826206FB07FC42EA90124FEA80604FEA9F
:101940001C4C0CFB0BF7D21B03FB0CF761EB0701E4
:101950000CFB0EF7B0EB074072EB17420CFB08F7DD
:1019600034BFA2EB0742B2EB074261EB17414FEAEB
:101970008C554FEA910704EB9C2406FB07FC4FEAC9
:101980001C4C0CFB0BF7B0EBC74072EB573203FB60
:101990000CF734BFA2EBC742B2EBC74261EB573141
:1019A0000CFB0EF7B0EBC70072EB57720CFB08F79D
:1019B00034BFA2EBC702B2EBC70261EB577115EB64
:1019C0004C254FEA816141EA92114FEA82624FEA67
:1019D000D13742EA901206FB07FC44F100044FEABB
:1019E00080604FEA1C4C0CFB0BF7D21B03FB0CF77F
:1019F00061EB07010CFB0EF7B0EB074072EB1742EF
:101A00000CFB08F734BFA2EB0742B2EB074261EBD5
:101A1000174115EB1C154FEA813141EA92414FEA1B
:101A2000823242EA90424FEA80304FEA0C7644F12B
:101A3000000448EA03434EEA0B484FF0000EB2EBB5
:101A4000080C71EB030724BF624639464EEB0E0EBD
:101A50004FF0000B0018524149414BEB0B0BB2EB1E
:101A6000080C71EB03077BF1000B24BF624639467B
:101A70004EEB0E0E4FF0000B0018524149414BEB5C
:101A80000B0BB2EB080C71EB03077BF1000B24BFCF
:101A9000624639464EEB0E0E51EA020718BF46F079
:101AA000010616EB0E7655F1000254F1000103D544
:101AB000BDE88901BDE80088BDE88901BDE80048AE
:101AC000B619524141EB0101A3F101037047808037
:101AD0007F7E7D7C7B7A7978777676757473727188
:101AE00071706F6E6E6D6C6C6B6A6A696868676640
:101AF00066656464636362616160605F5F5E5E5DD2
:101B00005D5C5C5B5B5A5A59595858575756565545
:101B100055555454535352525251515050504F4FA7
:101B20004F4E4E4D4D4D4C4C4C4B4B4B4A4A4A49F7
:101B3000494948484847474747464646454545443A
:101B40004444444343434342424242414141002BC7
:101B50009C4630D477002BD01CB54FEA370703B42E
:101B60004FF010004FF01001BAF1000F06D0BCF199
:101B7000000FDCBF40F0080040F008014FF000000B
:101B80000FBCBDE810400BF1010BBBF1010F08BF0A
:101B90005FEA170722BF12F1010211F101014FF0B4
:101BA000004143F1000300F0004043EA00007047A9
:101BB000F9D35708D0E746EA064613F1400F4FEA3B
:101BC00016461FDD13F1200FDFBF16430A46002122
:101BD00020335B42BED0C3F1200746EA064602FA34
:101BE00007F74FEA164646EA0706C3F1200722FA2E
:101BF00003F201FA07F721FA03F14FF0000342EA7A
:101C00000702A7E746EA020646EA06464FEA1646F4
:101C100046EA0106BCBF46EA0646360C4FF0000312
:101C20004FF000024FF0000194E72DE9804C9A46F6
:101C3000934670B491E8380007C831EA400C48BFB9
:101C400034EA430C03D5FFF7E6FDFFF780FFF0BC55
:101C5000BDE8008C2DE9804C9A46934670B491E81B
:101C6000380007C810F0804F08BF13F0804F03D131
:101C700000F005F8FFF76BFFF0BCBDE8008C20F02A
:101C80007F4780EA030023F07F4C07EB0C03A3F5AA
:101C90007C5300F00040A3F1FE0392F0000F00F02F
:101CA000B38095F0000F00F077802DE901494FEAED
:101CB00011404FEA144621EA004800FB06FC24EAE2
:101CC000064708FB06F607FB08F800FB07F718EBCA
:101CD00006484CEB164C4FEA124B18EB07484FEAFC
:101CE00015464CEB174022EA0B4E0BFB06FC25EA8F
:101CF00006470EFB06F607FB0EFE0BFB07F71EEB77
:101D0000064E4CEB164C4FF000061EEB074E4CEB0C
:101D1000174B18EB0B0840F1000018EB0E0B58EBBB
:101D2000000840F100008F1A4FF000013CBFC9438A
:101D3000661B14BFB5EB040C00213CBFC943F61B66
:101D40004FEA17444EEA8E0E27EA04454FEA1C4735
:101D500004FB07622CEA074C05FB07F70CFB05F6B2
:101D600004FB0CFC16EB074642EB174216EB0C4645
:101D700042EB1C421BEB060658EB0202414146EACD
:101D80009E0601D5BDE80189B619524141EB01011A
:101D9000A3F10103BDE801894FEA14454FEA114759
:101DA00024EA054621EA074C05FB07F406FB07F782
:101DB0000CFB06F105FB0CFC11EB074144EB17444F
:101DC0004FEA124711EB0C4144EB1C4422EA074C4A
:101DD00005FB07F206FB07F70CFB06F605FB0CFC00
:101DE00016EB074642EB174216EB0C4642EB1C453E
:101DF0006A1854F1000148BF7047B619524141EBCF
:101E00000101A3F10103704795F0000F37D04FEAAD
:101E100011424FEA144721EA024624EA074C02FB2A
:101E200007F106FB07F70CFB06F402FB0CFC14EBB6
:101E3000074441EB17414FEA154714EB0C4441EBC3
:101E40001C4125EA074C02FB07F506FB07F70CFBD4
:101E500006F602FB0CFC16EB074645EB174516EBA6
:101E60000C4645EB1C42121951F1000148BF704766
:101E7000B619524141EB0101A3F1010370474FEA4A
:101E800014454FEA114724EA054621EA074C05FBB1
:101E900007F106FB07F70CFB06F24FF0000605FB07
:101EA0000CFC12EB074241EB174112EB0C4251EBD9
:101EB0001C4148BF7047921841EB0101A3F1010397
:101EC000704770B505460C4600260DB1022C00D8AF
:101ED00070BDA11E4FF6FF72284600F03BF9064682
:101EE000A01E2E54310A601E295400BFF0E770B5C1
:101EF00005460C4600260DB1022C00D870BD611EAF
:101F0000FF22284600F040F90646601E2E5400BF0E
:101F1000F4E700BFFEE7000010B5024800F056FBF2
:101F200010BD000040030020F8B507460C461546DA
:101F30001E464FF400700D49086000208860C8609C
:101F400008200861380A0A4908704F70200A887012
:101F5000CC70280A08714D71300A8871CE716B46B9
:101F60000A460249034800F036F9F8BD1807002078
:101F7000240000204003002013B582B0044611481D
:101F8000046000200F498860C86008200861A7200D
:101F90000D490870002048708870C8709DF80C00CA
:101FA00008719DF80D0048719DF80E0088719DF82C
:101FB0000F00C87101AB0A460249044800F00BF952
:101FC0001FBD0000600700203C00002040030020EF
:101FD00010B5024800F002FF10BD00009805002077
:101FE00010B5024800F0FAFE10BD0000D804002031
:101FF00010B5024800F0F2FE10BD00007804002089
:1020000010B5024800F0EAFE10BD000038050020BF
:1020100010B5024800F0E2FE10BD00005806002096
:1020200010B5024800F0DAFE10BD0000F8050020EF
:1020300010B5024800F0D2FE10BD0000B806002026
:102040000146087810381823B0FBF3F20848805C8A
:10205000C865032A05D908686FF30900001D886563
:1020600003E008686FF309008865886D7047000019
:1020700060900008014600208A6A8B69CBB932B1B2
:10208000012A0DD0022A03D0032A10D10EE000BF8E
:10209000CB6A03F08073B3F1807F00D1012007E0A9
:1020A000CB6AB3F1C07F00D1012001E000E000BFA6
:1020B00034E08B69B3F5005F1AD132B1012A07D041
:1020C000022A03D0032A11D10AE000BF01200EE04A
:1020D000CB6A03F08073B3F1807F00D1012006E06A
:1020E000CB6AB3F1C07F00D1012000E000BF15E052
:1020F00032B1012A05D0022A04D0032A0CD103E010
:1021000000BF00BF012008E0CB6A03F08073B3F189
:10211000807F00D1012000E000BF00BF704730B5D4
:102120000468246824F4802405682C6004686360D3
:102130008468402C04D10468A2600468E16003E074
:102140000468A1600468E26030BD704772B600BFE9
:10215000FEE7000030B5034613B94FF6FF7030BDFF
:1021600009E013F8014B82EA0400C0B2054D35F8CE
:10217000100080EA2222081EA1F10101F1D11046CF
:10218000EDE700008491000830B5034605E013F840
:10219000010B80EA02040448025D081EA1F101015E
:1021A000F5D1104630BD00008190000810B5024600
:1021B00092F82030012B01D0022B06D11068406923
:1021C000084314686061002010BD506A40F480200C
:1021D00050620120F8E7F0B504460D461E4694F81B
:1021E000207020688368A86800B900E000BF012F54
:1021F00001D0022F7CD103F0806030B903F0006081
:1022000018B903F08050002873D0C3F3016102298C
:1022100005D9606A40F4000060620120F0BD012031
:1022200088403060A86860B9B5F800C0E86840EA46
:102230004C5C206800F5C07000EB0110C0F800C0D5
:102240000FE0D5E901C040EACC00D5F80CC040EA67
:102250000C00D4F800C00CF5C07C0CEB011CCCF8D1
:102260000000D5F810C0206800F5C07000EB011028
:10227000C0F804C0287D01280ED1206800F5C07088
:1022800000EB0110406840F4807C206800F5C070CD
:1022900000EB0110C0F804C0D079000692F806C027
:1022A00040EA0C4092F805C040EA0C2C10794CEA48
:1022B000000C206800F5C07000EB0110C0F80CC0E5
:1022C000D078000692F802C040EA0C4092F801C0B3
:1022D00040EA0C2092F800C040EA0C00D4F800C09C
:1022E0000CF5C07C0CEB011CCCF80800206801E068
:1022F00016E00FE000F5C07000EB0110006840F040
:10230000010C206800F5C07000EB0110C0F800C09F
:10231000002083E7606A40F40010606201207DE7DE
:10232000606A40F480206062012077E7F0B50446DF
:102330000A46216894F82050012D01D0022D7ED14B
:10234000424901F50071086840F001000860086822
:1023500020F47C5008600868566A40EA062008604D
:10236000107D00F01F06012000FA06F3C8699843AB
:10237000C861A1F50071D069C8B9D1F80C029843C1
:10238000C1F80C02908880B2968940EA064601F5B1
:102390001070576940F83760108880B2168940EA9B
:1023A000064601F51070576900EBC7004660D0691A
:1023B000012819D1D1F80C021843C1F80C029088F9
:1023C00080B2168840EA064601F51070576940F859
:1023D0003760908980B2168940EA064601F5107090
:1023E000576900EBC7004660906928B9D1F804022C
:1023F0009843C1F8040204E0D1F804021843C1F87C
:102400000402106928B9D1F814029843C1F81402E3
:1024100004E0D1F814021843C1F81402106A01282C
:1024200004D1D1F81C021843C1F81C02D1F80002F3
:1024300020F00100C1F800020020F0BDFFE7606A53
:1024400040F4802060620120F7E700000064004053
:10245000704770B5044694F82050012D01D0022D2C
:102460007DD151B92068C06800F0030080B9606A6E
:1024700040F400106062012070BD2068006900F027
:10248000030028B9606A40F4001060620120F3E79D
:10249000206800F5D87000EB0110006800F004001F
:1024A0009060906840B9206800F5D87000EB01108A
:1024B0000068400D106007E0206800F5D87000EB60
:1024C00001100068C0085060206800F5D87000EB6B
:1024D0000110006800F00200D060206800F5D8709C
:1024E00000EB0110406800F00F001061206800F55B
:1024F000D87000EB0110406800F47F40000A906142
:10250000206800F5D87000EB01104068000C5061A5
:10251000206800F5D87000EB011080681870206802
:1025200000F5D87000EB0110806800F47F40000ACD
:102530005870206800F5D87000EB0110806800F436
:102540007F00000C9870206800F5D87000EB011037
:102550008068000ED870206800F5D87000E02FE089
:1025600000EB0110C0681871206800F5D87000EB0E
:102570000110C06800F47F40000A5871206800F51F
:10258000D87000EB0110C06800F47F00000C987157
:10259000206800F5D87000EB0110C068000ED871FB
:1025A00031B92068C06840F020002668F06005E07E
:1025B0002068006940F020002668306100205BE759
:1025C000606A40F480206062012055E72DE9F05FE9
:1025D00004460025206846692068D0F804902068E9
:1025E00087682068D0F80CA02068D0F810B0206868
:1025F000D0F8188006F00100002855D007F001003F
:10260000C0B101202168886007F0020018B120469F
:1026100000F073FB0EE007F0040010B145F4006514
:1026200008E007F0080010B145F4805502E02046AC
:1026300000F062FB07F48070C8B14FF4807021682D
:10264000886007F4007018B1204600F058FB0EE0D7
:1026500007F4806010B145F4005508E007F400600D
:1026600010B145F4804502E0204600F047FB07F436
:102670008030C8B14FF480302168886007F40030A2
:1026800018B1204600F03DFB0EE007F4802010B1A9
:1026900045F4004508E007F4002010B145F480350A
:1026A00002E0204600F02CFB06F0080038B10AF0EA
:1026B000100020B145F4007510202168C86006F0B4
:1026C000040040B10AF0080028B108202168C86061
:1026D000204600F0A9F906F0020038B12068C06871
:1026E00000F0030010B1204600F0A0F906F0400011
:1026F00038B10BF0100020B145F48065102021683E
:10270000086106F0200040B10BF0080028B1082055
:1027100021680861204600F0BDFA06F0100038B1CB
:102720002068006900F0030010B1204600F0B3FA01
:1027300006F4003040B109F0100028B110202168E3
:102740004860204600F0A8FA06F4803040B109F055
:10275000080028B1082021684860204600F0D2FA1D
:1027600006F4004088B309F0040078B306F48070E2
:1027700020B108F0010008B145F0010506F4007031
:1027800020B108F0020008B145F0020506F48060AF
:1027900020B108F0040008B145F0040506F400601B
:1027A000A0B108F0700088B108F07000402817D080
:1027B00006DC10280BD020280CD0302819D10CE0D2
:1027C000502810D0602814D110E01DE019E045F029
:1027D00008050FE045F010050CE045F0200509E084
:1027E00045F0400506E045F0800503E045F48075BE
:1027F00000E000BF00BF2068806920F07000216801
:1028000088610420216848602DB1606A28436062B5
:102810002046FFF71DFEBDE8F09F70B504460CB9D9
:10282000012070BD94F8200010B9204600F0B0F8E7
:102830002068006840F001002168086000F002FE96
:1028400005460DE000F0FEFD401B0A2808D9606A2D
:1028500040F400306062052084F820000120E0E7A9
:102860002068406800F001000028EBD02068006874
:1028700020F002002168086000F0E4FD05460DE04C
:1028800000F0E0FD401B0A2808D9606A40F40030DF
:102890006062052084F820000120C2E720684068BB
:1028A00000F002000028EBD1207E012806D120682C
:1028B000006840F080002168086005E0206800683A
:1028C00020F0800021680860607E012806D1206821
:1028D000006840F040002168086005E0206800685A
:1028E00020F0400021680860A07E012806D1206801
:1028F000006840F020002168086005E0206800685A
:1029000020F0200021680860E07E012806D12068C0
:10291000006820F010002168086005E02068006869
:1029200040F0100021680860207F012806D120684F
:10293000006840F008002168086005E02068006831
:1029400020F0080021680860607F012806D1206817
:10295000006840F004002168086005E02068006815
:1029600020F0040021680860D4E9020108432169CD
:102970000843616908436168491E08432168C861CA
:1029800000206062012084F82000002049E7000058
:1029900010B586B00446142101A8FDF72EFE1F498C
:1029A0002068884237D100BF002000901C48006892
:1029B00040F000701A4908600846006800F0007096
:1029C000009000BF00BF00BF0020009014481038E6
:1029D000006840F008001249103908600846006895
:1029E00000F00800009000BF00BF0320019002200B
:1029F000029000200390032004900920059001A973
:102A0000084800F011FC00220521142000F0AAFD66
:102A1000142000F097FD06B010BD000000640040D7
:102A200040380240000C02407047000010B588B0EA
:102A30000446904B01AA00212046FFF70AFD0198A9
:102A4000B0F5017F19D00ADCB0F5A27F7ED0A0F2EC
:102A5000012078B101280ED0022878D10CE0A0F234
:102A6000052000284FD001284ED0022870D003281E
:102A7000F3D194E000BF00BF00BF0198401E7E4923
:102A800008700846007800EB80007C4931F810009F
:102A900000B27949097801EB8101784A02EB4101E2
:102AA0000881744840787349097840EA01207249E6
:102AB000097801EB810122F811006E48C0786D4958
:102AC000897840EA012000B26B49097801EB810165
:102AD00002EB41014880674840796649097940EA3C
:102AE000012000B26449097801EB810102EB410148
:102AF0008880604880796049097801EB810102EBA8
:102B000041018871B2E000BF0198401F5C49087024
:102B10000846007800EB80005A4931F8100000B2F6
:102B20005749097801EB8101564A02EB41010881BE
:102B3000504840784F49097840EA012050490978C7
:102B400001EB810122F811004A4802E06DE08CE0BF
:102B500024E0C0784749897840EA012000B248491A
:102B6000097801EB810102EB41014880414840793D
:102B70004049097940EA012000B24149097801EB56
:102B8000810102EB410188803A4880793C4909780B
:102B900001EB810102EB4101887167E000BF019800
:102BA000C01F394908700846007800EB800037499B
:102BB00031F8100000B23449097801EB8101334A41
:102BC00002EB410108812B4840782A49097840EA04
:102BD00001202D49097801EB810122F811002548D7
:102BE000C0782449897840EA012000B22649097852
:102BF00001EB810102EB410148801E4840791D49EB
:102C0000097940EA012000B21F49097801EB8101EE
:102C100002EB41018880174880791B49097801EB54
:102C2000810102EB4101887120E01248407840B2F6
:102C3000174908700F4880780E49C97840EA01208A
:102C400000B2134948800B4800790A49497940EAA3
:102C5000012000B20E498880064880790549C9796B
:102C600040EA01200A49C88000E000BF00BF08B068
:102C700010BD0000440000204C000020F809002096
:102C80004D000020200A00204E000020340A0020C1
:102C90005E00002070477047704770B5044694F896
:102CA0002000012822D1022084F82000206800683A
:102CB00020F001002168086000F0C4FB05460DE02B
:102CC00000F0C0FB401B0A2808D9606A40F40030BD
:102CD0006062052084F82000012070BD20684068F3
:102CE00000F001000028EBD16062F6E7606A40F472
:102CF000002060620120F0E770477047704770471E
:102D000070477047704770B50446A56D00F09AFB98
:102D1000064694F83500022808D08020606500BF80
:102D2000002084F8340000BF012070BD20680068D6
:102D300020F01600216808602068406920F08000BB
:102D400021684861206C08B9A06C28B1206800682F
:102D500020F00800216808602068006820F0010069
:102D60002168086010E000F06DFB801B05280BD97E
:102D700020206065032084F8350000BF002084F81F
:102D8000340000BF0320D0E72068006800F0010095
:102D90000028E8D194F85C103F208840A86001200A
:102DA00084F8350000BF002084F8340000BF00BF65
:102DB000BBE7014691F83500022803D08020486522
:102DC00001207047052081F835000868006820F070
:102DD00001000A6810600020F3E70000F8B504461F
:102DE000002000908C4800684FF41651B0FBF1F7BA
:102DF000A56D2E6894F85C1008208840304098B18A
:102E00002068006800F0040070B12068006820F0BD
:102E100004002168086094F85C1008208840A860CD
:102E2000606D40F00100606594F85C1001208840FE
:102E3000304068B12068406900F0800040B194F8EB
:102E40005C1001208840A860606D40F00200606561
:102E500094F85C1004208840304068B12068006815
:102E600000F0020040B194F85C1004208840A86093
:102E7000606D40F00400606594F85C10102088409C
:102E8000304078B32068006800F0080050B394F830
:102E90005C1010208840A8602068006800F4802042
:102EA00080B12068006800F4002028B9206CC8B107
:102EB0002046216C884715E0A06C98B12046A16C93
:102EC00088470FE02068006800F4807028B9206807
:102ED000006820F0080021680860206C10B12046CE
:102EE000216C884794F85C102020884030400028EE
:102EF00065D02068006800F0100000285FD094F8CA
:102F00005C1020208840A86094F83500052828D15E
:102F10002068006820F01600216808602068406979
:102F200020F0800021684861206C08B9A06C28B1AD
:102F30002068006820F008002168086094F85C10A0
:102F40003F208840A860012084F8350000BF0020A1
:102F500084F8340000BF206D10B12046216D8847F1
:102F6000F8BD2068006800F4802080B12068006807
:102F700000F4002028B9606C10B12046616C8847CD
:102F80001DE0E06BD8B12046E16B884717E0206870
:102F9000006800F4807068B92068006820F01000B4
:102FA00021680860012084F8350000BF002084F803
:102FB000340000BFE06B10B12046E16B8847606DC4
:102FC00038B3606D00F00100F0B1052084F83500E1
:102FD0002068006820F001002168086000BF0098A8
:102FE000401C0090B84200D905E02068006800F05D
:102FF00001000028F3D100BF012084F8350000BF94
:10300000002084F8340000BFE06C10B12046E16C71
:10301000884700BFA4E70000200000202DE9F04110
:103020000446002500F00EFA074614B90120BDE859
:10303000F081606A00B100BF022084F8350000BF53
:10304000002084F8340000BF2068006820F00100F0
:10305000216808600AE000F0F5F9C01B052805D9D1
:1030600020206065032084F83500E0E720680068D0
:1030700000F001000028EED12068056821480540D5
:10308000D4E901010843E168084321690843616903
:103090000843A1690843E1690843216A08430543DD
:1030A000606A042803D1D4E90B0108430543206872
:1030B00005602068456925F00705606A0543606A78
:1030C00004280DD1A06A0543E06A48B12046FEF706
:1030D000D1FF28B140206065012084F83500A6E7C3
:1030E000206845612046FEF7ABFF064694F85C1069
:1030F0003F208840B06000206065012084F83500E2
:10310000002094E73F8010F02DE9F04104460D4681
:1031100016461F464FF0000800BF94F834000128FF
:1031200002D10220BDE8F081012084F8340000BF04
:1031300094F83500012811D1022084F835000020D0
:1031400060653B46324629462046FEF7E8FF206888
:10315000006840F001002168086006E000BF002020
:1031600084F8340000BF4FF002084046DAE72DE94A
:10317000F04704460D4616461F464FF00008D4F8A7
:10318000589000BF94F83400012802D10220BDE815
:10319000F087012084F8340000BF94F8350001283E
:1031A00025D1022084F83500002060653B46324678
:1031B00029462046FEF7B3FF94F85C103F20884074
:1031C000C9F808002068006840F01600216808600F
:1031D000206C28B12068006840F008002168086071
:1031E0002068006840F001002168086006E000BF28
:1031F000002084F8340000BF4FF002084046C6E7C4
:1032000070B5044600F01EF906462546681C10B14C
:1032100004480078054400BF00F014F9801BA84260
:10322000FAD370BD1C000020F8B502460B460025FD
:10323000002400200021E0E0012606FA01F51E68C6
:1032400006EA0504AC4274D11E7906F00306012E8D
:1032500004D01E7906F00306022E13D190684F00A9
:103260000326BE40B0434F00DE68BE40304390604E
:10327000506801268E40B0431E79C6F300168E407A
:10328000304350601E7906F00306032E09D0D06843
:103290004F000326BE40B0434F009E68BE403043FF
:1032A000D0601E7906F00306022E13D1CF0802F17A
:1032B000200656F827004E07F70E0F26BE40B043F3
:1032C0004F07FF0E1E69BE403043CF0802F12006B3
:1032D00046F8270010684F000326BE40B0431E7911
:1032E00006F003064F00BE40304310605E6806F4EF
:1032F0004036002E1DD000BF00260096414E366895
:1033000046F480463F4F3E603E46366806F48046AF
:10331000009600BF00BF3C4E8F0856F827008E076E
:10332000370F0F26BE40B043384EB24202D10026BE
:103330002EE061E0364EB24201D1012628E0354E42
:10334000B24201D1022623E0334EB24201D103261C
:103350001EE0324EB24201D1042619E0304EB24294
:1033600001D1052614E02F4EB24201D106260FE00E
:103370002D4EB24201D107260AE02C4EB24201D1B5
:10338000082605E02A4EB24201D1092600E00A26AD
:103390008F073F0FBE4030431B4E8F0846F8270073
:1033A000244E3068A0435E6806F4801606B12043C0
:1033B000204E3060361D3068A0435E6806F400166B
:1033C00006B120431B4E361D30601A4E361F306842
:1033D000A0435E6806F4003606B12043154E361F42
:1033E0003060361F3068A0435E6806F4803606B150
:1033F0002043104E083E3060491C1029FFF41CAFDA
:10340000F8BD000044380240083801400000024086
:103410000004024000080240000C0240001002407C
:103420000014024000180240001C0240002002402C
:1034300000240240083C01400AB1816101E00B0414
:103440008361704701480068704700001400002045
:103450000348006803490978084401490860704737
:10346000140000201C00002010B50D48006840F436
:1034700000700B4908600846006840F480600860EE
:103480000846006840F480700860032000F0A8F847
:103490000F2000F007F800F02BF8002010BD00000E
:1034A000003C024070B504460E4800784FF47A7133
:1034B000B1FBF0F00C490968B1FBF0F5284600F0CB
:1034C00031FC08B1012070BD102C07D2002221462A
:1034D000501E00F047F80548046001E00120F2E7C3
:1034E0000020F0E71C000020200000201800002031
:1034F00008B500BF002000901148006840F48040EB
:103500000F4908600846006800F48040009000BF42
:1035100000BF00BF00200090081F006840F08050EE
:10352000091F08600846006800F08050009000BF46
:1035300000BF00220F21901E00F014F808BD00000B
:103540004438024001460846002809DB00F01F030A
:1035500001229A4043099B0003F1E023C3F80021B4
:1035600000BF70472DE9F05F80460D4616460027E4
:1035700002F0D4F9074639462A46334601F00700DF
:10358000C0F1070ABAF1040F02D94FF0040A01E0B2
:10359000C0F1070AD14600F1040ABAF1070F02D2BE
:1035A0004FF0000A01E0A0F1030AD4464FF0010AEF
:1035B0000AFA09FAAAF1010A0AEA020A0AFA0CFA54
:1035C0004FF0010B0BFA0CFBABF1010B0BEA030BF9
:1035D0004AEA0B042146404602F0A8F9BDE8F09FF4
:1035E00000BF00F00702064B19684FF6FF031940B1
:1035F000044B0B4343EA0221014B196000BF7047A3
:103600000CED00E00000FA0570B504460D460CB95B
:10361000012070BD5848006800F00F00A84209D290
:1036200055490D700846006800F00F00A84201D00F
:103630000120EEE7207800F0020002281DD120785A
:1036400000F00400042805D14C48006840F4E05024
:103650004A490860207800F00800082805D147484A
:10366000006840F46040454908604448006820F024
:10367000F000A168084341490860207800F001008B
:10368000A8B36068012807D13C4808380068C0F337
:103690004040B8B90120BCE76068022802D06068E9
:1036A000032807D1354808380068C0F3406048B99E
:1036B0000120AEE7314808380068C0F3400008B97F
:1036C0000120A6E72D48006820F003006168084348
:1036D0002A490860FFF7B6FE064609E0FFF7B2FE8A
:1036E000801B41F28831884202D9032091E707E02C
:1036F0002248006800F00C006168B0EB810FEDD14A
:103700001D48006800F00F00A84209D91A490D7041
:103710000846006800F00F00A84201D0012078E7B9
:10372000207800F00400042807D11448006820F431
:10373000E050E168084311490860207800F0080073
:10374000082808D10D48006820F46040216940EA4B
:10375000C1000A49086000F03FF808490968C1F350
:103760000311074A515CC8400649086006480068D2
:10377000FFF798FE00204CE7003C0240083802406A
:103780006890000820000020180000200148006810
:10379000704700002000002000B5FFF7F7FF044944
:1037A0000968C1F38221034A515CC84000BD000092
:1037B000083802407890000800B5FFF7E7FF044999
:1037C0000968C1F34231034A515CC84000BD0000A2
:1037D00008380240789000082DE9F04700240025C1
:1037E0000026A1462548006800F00C0020B10428FE
:1037F00005D008283AD105E0DFF8849039E0DFF8F9
:10380000849036E01D48001F006800F03F041B480C
:10381000001F006800F4800078B11A481749091F9A
:103820000968C1F38811A0FB0170014622460023FC
:103830003846FCF7E1FD05460EE011480F49091F27
:103840000968C1F38811A0FB0170014622460023DC
:103850003846FCF7D1FD05460848001F0068C0F354
:103860000140401C4600B5FBF6F902E0DFF810907D
:1038700000BF00BF4846BDE8F0870000083802409E
:103880000024F400001BB700F8B504460CB9012071
:10389000F8BD207800F00100002874D0F9480068D5
:1038A00000F00C0004280DD0F648006800F00C0071
:1038B000082813D1F348001F006800F48000B0F519
:1038C000800F0BD1EF4808380068C0F34040002853
:1038D00059D06068002856D10120D9E700BF606840
:1038E000B0F5803F08D1E7480838006840F48030E0
:1038F000E449083908601EE06068B0F5A02F0DD1DA
:10390000E0480838006840F48020DE490839086043
:103910000846006840F4803008600CE0D948083858
:10392000006820F48030D7490839086008460068EC
:1039300020F48020086000BF606890B1FFF782FD2E
:10394000054606E0FFF77EFD401B642801D90320F1
:103950009EE7CC4808380068C0F340400028F1D00A
:1039600011E0FFF76FFD054606E0FFF76BFD401B1A
:10397000642801D903208BE7C24808380068C0F3E7
:1039800040400028F1D1207800F0020002285FD1E9
:10399000BC48006800F00C0058B1BA48006800F05C
:1039A0000C0008281CD1B748001F006800F48000F4
:1039B000B0B9B44808380068C0F3400020B1E068EE
:1039C000012801D0012063E7AE480838006820F0E4
:1039D000F800216940EAC100AA490839086037E0C7
:1039E000E06800B30120A8490860FFF72BFD0546F9
:1039F00006E0FFF727FD401B022801D9032047E717
:103A0000A04808380068C0F340000028F1D09D4865
:103A10000838006820F0F800216940EAC10099499F
:103A20000839086014E0002097490860FFF70AFD94
:103A3000054606E0FFF706FD401B022801D90320DA
:103A400026E7904808380068C0F340000028F1D10C
:103A5000207800F0080008282CD16069A8B1012066
:103A60008A490860FFF7EEFC054606E0FFF7EAFC2E
:103A7000401B022801D903200AE782486C30006805
:103A8000C0F340000028F1D014E000207F49086016
:103A9000FFF7D8FC054606E0FFF7D4FC401B0228E0
:103AA00001D90320F4E677486C300068C0F3400089
:103AB0000028F1D1207800F00400042870D10027FC
:103AC00070483830006800F0805090B900BF002086
:103AD00000906C483830006840F0805069493831B7
:103AE00008600846006800F08050009000BF00BFEA
:103AF00001276748006800F48070B0B96448006826
:103B000040F4807062490860FFF79CFC054606E0BF
:103B1000FFF798FC401B022801D90320B8E65C4857
:103B2000006800F480700028F2D000BFA06801286F
:103B300008D154486830006840F0010051496831AC
:103B400008601DE0A06805280DD14E486830006867
:103B500040F004004B49683108600846006840F0B6
:103B6000010008600CE047486830006820F0010060
:103B70004449683108600846006820F00400086085
:103B800000BFA068A8B1FFF75DFC054609E0FFF79C
:103B900059FC401B41F28831884202D9032077E664
:103BA00026E0384868300068C0F340000028EED0B6
:103BB00013E0FFF747FC054608E0FFF743FC401B16
:103BC00041F28831884201D9032061E62D486830EE
:103BD0000068C0F340000028EFD1012F07D1294829
:103BE0003830006820F0805026493831086000BF26
:103BF000A069002845D02348006800F00C00082880
:103C00005DD0A069022845D100201F490866FFF752
:103C100019FC054606E0FFF715FC401B022801D9F8
:103C2000032035E6174808380068C0F340600028D4
:103C3000F1D1D4E907010843616A40EA8111012208
:103C4000A06AC2EB500041EA00412C20005D41EA2D
:103C500000600C49091F086001200B490866FFF746
:103C6000F1FB054606E0FFF7EDFB401B022801D9FA
:103C700003200DE6034808380068C0F340600028C0
:103C8000F1D049E00838024000004742800E474228
:103C900000700040002021490866FFF7D3FB05466D
:103CA00006E0FFF7CFFB401B022801D90320EFE518
:103CB0001B480068C0F340600028F2D12CE0A069E6
:103CC000012800D1E4E51648001D0668A069012816
:103CD00020D006F48001E06981421BD106F03F014B
:103CE000206A814216D147F6C0703040616AB0EB5D
:103CF000811F0FD106F440310122A06AC2EB5000AF
:103D0000B1EB004F06D106F070612C20005DB1EBE5
:103D1000006F01D00120BBE50020B9E5000047425B
:103D20000038024070B504462546681EB0F1807F19
:103D300001D301200FE0681E4FF0E02148610F2100
:103D40004FF0FF3001F0F2FD00204FF0E0218861DC
:103D500007200861002070BD704770B5044600253B
:103D600020684069C0F3C01594F83D00212817D1A0
:103D7000B5B100BF00BF2168143151E8001F21F028
:103D800080002168143141E80002002AF3D100BF0D
:103D9000606B10B1606BFEF7B6FF204601F077FA5A
:103DA00020684069C0F3801594F83E00222817D19E
:103DB000B5B100BF00BF2168143151E8001F21F0E8
:103DC00040002168143141E80002002AF3D100BF0D
:103DD000A06B10B1A06BFEF796FF204601F011FA20
:103DE000002070BD016C01F0080121B1026811686A
:103DF0000268516800BF70472DE9F84F04462068FB
:103E000005682068C668206847694FF00009CA46FF
:103E100005F00F09B9F1000F0AD105F0200038B103
:103E200006F0200020B1204601F044FABDE8F88FEA
:103E3000B9F1000F7CD007F0010018B906F49070BA
:103E4000002875D005F0010030B106F4807018B17B
:103E5000206C40F00100206405F0040030B107F050
:103E6000010018B1206C40F00200206405F002004F
:103E700030B107F0010018B1206C40F0040020645C
:103E800005F0080048B106F0200010B907F0010065
:103E900018B1206C40F008002064206C002846D047
:103EA00005F0200028B106F0200010B1204601F0F6
:103EB00001FA20684069C0F3801A206C00F0080005
:103EC00010B9BAF1000F2DD0204601F09AF9206800
:103ED000406900F04000402820D100BF00BF2168A9
:103EE000143151E8001F21F040002168143141E8ED
:103EF0000002002AF3D100BFA06B50B17548A16B3E
:103F00000865A06BFEF755FF88B1A06B016D88476F
:103F10000DE02046FFF766FF09E009E02046FFF7C5
:103F200061FF04E02046FFF75DFF002020647DE78D
:103F3000206B012876D105F01000002872D006F021
:103F400010000028FAD000BF002000902068006810
:103F5000009020684068009000BF00BF2068406962
:103F600000F0400040285ED1A06B006840681FFA56
:103F700080F8B8F1000F54D0A08D404551DDA4F871
:103F80002E80A06BC069B0F5807F43D000BF00BF1A
:103F900021680C3151E8001F21F4807021680C3138
:103FA00041E80002002AF3D100BF00BF00BF216832
:103FB000143151E8001F21F001002168143141E85B
:103FC0000002002AF3D100BF00BF00BF21681431F6
:103FD00051E8001F21F040002168143141E800023F
:103FE000002AF3D100BF202084F83E000020206387
:103FF00000BF00BF21680C3151E8001F21F0100004
:1040000021680C3141E80002002AF3D100BFA06B07
:10401000FEF779FEA08DE28D801A81B22046FFF76F
:104020009BFE03E740E0A08DE18D401A1FFA80F867
:10403000E08DC0B3B8F1000F35D000BF00BF2168DC
:104040000C3151E8001F21F4907021680C3141E8D7
:104050000002002AF3D100BF00BF00BF2168143165
:1040600051E8001F21F001002168143141E80002ED
:10407000002AF3D100BF202084F83E0000202063F6
:1040800000BF00BF21680C3151E8001F21F0100073
:1040900021680C3141E80002002AF3D100BF4146FB
:1040A0002046FFF759FEC1E605F0800030B106F06A
:1040B000800018B1204601F0F7FAB7E605F040009D
:1040C00030B106F0400018B1204601F0D0F8ADE65E
:1040D00000BFABE66950000810B504460CB90120DA
:1040E00010BDA06900B100E000BF94F83D0028B900
:1040F000002084F83C00204600F028F8242084F8B2
:104100003D002068C06820F400502168C860204647
:1041100001F04CF92068006920F4904021680861A2
:104120002068406920F02A00216848612068C06842
:1041300040F400502168C86000202064202084F8EA
:104140003D0084F83E000020CAE7000010B586B0AC
:104150000446142101A8FCF750FAF249206888426D
:104160007BD100BF00200090EF48006840F0804005
:10417000ED4908600846006800F08040009000BFEC
:1041800000BF00BF00200090E7481038006840F0F2
:104190001000E549103908600846006800F010007A
:1041A000009000BF00BF4FF4C07001900220029049
:1041B00000200390032004900820059001A9DB480B
:1041C000FFF732F8DA48DB4908604FF020604860BA
:1041D0000021D8488160C1604FF4806101610021F5
:1041E000416181614FF48071C161002101624162CE
:1041F000FEF714FF08B1FDF7A9FF00BFCD48A0638B
:10420000846300BFCA483038CB49086080054860E5
:104210004021C94881600021C1604FF48061016183
:104220000021416181614FF48071C161002101620F
:104230004162FEF7F3FE08B1FDF788FF00BFBE48FC
:104240006063846300BF002205215220FFF78AF9D2
:104250005220FFF777F962E1FFE7B849206888420A
:104260007BD100BF00200090AF48006840F00040C4
:10427000AD4908600846006800F00040009000BFAB
:1042800000BF00BF00200090A7481038006840F031
:104290001000A549103908600846006800F01000B9
:1042A000009000BF00BF0320019002200290002078
:1042B0000390032004900820059001A99B48FEF775
:1042C000B3FF9B4848309E490860000548600021C4
:1042D0009B488160C1604FF48061016100214161B0
:1042E00081614FF48071C161002101624162FEF77A
:1042F00095FE08B1FDF72AFF00BF9148A0638463D3
:1043000000BF8B4848388F4908604FF020604860F4
:1043100040218C4881600021C1604FF480610161BF
:104320000021416181614FF48071C161002101620E
:104330004162FEF773FE08B1FDF708FF00BF814838
:104340006063846300BF002205215320FFF70AF950
:104350005320FFF7F7F8E2E0FFE77B492068884247
:104360005AD100BF002000906F48001D006840F047
:1043700010006D49091D08600846006800F0100033
:10438000009000BF00BF00BF0020009066481038BA
:10439000006840F00200644910390860084600686F
:1043A00000F00200009000BF00BFC020019002207A
:1043B000029001200390032004900720059001A99A
:1043C0006248FEF731FF6248624908604FF00060C2
:1043D000486000215F488160C1604FF480610161E5
:1043E0000021416181614FF48071C161002101624E
:1043F0004162FEF713FE08B1FDF7A8FE00BF554865
:10440000A063846300BF002205212520FFF7AAF8DE
:104410002520FFF797F882E04F49206888427ED137
:1044200000BF002000904048001D006840F02000C0
:104430003D49091D08600846006800F02000009012
:1044400000BF00BF00BF0020009037481038006850
:1044500040F040003449103908600846006800F018
:104460004000009000BF00BF4FF484400190022044
:10447000029000200390032004900820059001A9D9
:104480003648FEF7D1FE32481838354908608005B5
:104490004860002132488160C1604FF48061016151
:1044A0000021416181614FF48071C1614902016263
:1044B00000214162FEF7B2FD08B1FDF747FE00BFE3
:1044C0002748A063846300BF214860302549086005
:1044D0004FF0206048604021224881600021C16087
:1044E0004FF4806101610021416181614FF480716D
:1044F000C1610902016200214162FEF78FFD08B12E
:10450000FDF724FE00BF17486063846300BF0022EC
:1045100005214720FFF726F84720FFF713F806B0DC
:1045200010BD0000007800404038024000100240FA
:104530005860024078040020D8040020007C00402D
:1045400038050020980500200010014000040240BA
:1045500040640240F80500200014014000180240A9
:1045600058060020B806002070B504460D461646D1
:1045700094F83E00202816D105B10EB9012070BD77
:1045800000BF94F83C00012801D10220F7E7012088
:1045900084F83C0000BF00202063324629462046B4
:1045A00001F01AF8EBE70220E9E700002DE9F047F7
:1045B000054631492868884223D100241EE02F484F
:1045C000005DA52819D12D49601C085C0D2814D167
:1045D000A01C085C88B9E01C085C70B9201D085C50
:1045E000D3280AD10819162101F046F906461EB152
:1045F0002249081902F050FB00BF641C802CDEDB4E
:1046000038E01F49286888422BD1002426E01D4845
:10461000005DA52821D11B490819052101F04EF99B
:104620000646CEB11749601C095C164AA01C105CF6
:10463000093041EA00071146E01C11F80090081902
:10464000394601F019F98046B8F1000F03D00D4941
:10465000081902F02BFB00BF00BF641C802CD6DBC6
:1046600008E009492868884204D1002000E0401C85
:104670008028FCDBBDE8F08700780040F8070020C8
:10468000007C0040780700200014014070472DE9AD
:10469000F84F04460E46174699464FF0000A94F824
:1046A0003D0020285AD106B117B90120BDE8F88F86
:1046B00000BF94F83C00012801D10220F6E7012058
:1046C00084F83C0000BF00202064212084F83D00D5
:1046D000FEF7B8FE8246A784E784A068B0F5805F45
:1046E00004D1206910B90025B04602E035464FF0EC
:1046F000000800BF002084F83C0000BF1BE05346C8
:10470000002280212046CDF8009000F0FDFF08B186
:104710000320CBE745B9B8F80000C0F308002168D2
:10472000486008F1020803E02878216848606D1CA1
:10473000E08C401EE084E08C0028E0D1534600224B
:1047400040212046CDF8009000F0DEFF08B10320A4
:10475000ACE7202084F83D000020A7E70220A5E771
:10476000F7B50446154694F83D00202846D1019837
:1047700000B10DB90120FEBD00BF94F83C00012836
:1047800001D10220F7E7012084F83C0000BF019826
:104790002062A584E58400202064212084F83D0067
:1047A0001748616BC8631748616B08641648616BF2
:1047B000C8640020616B086501AE23681A1D31686A
:1047C0002B46606BFEF7D3FC6FF040002168086059
:1047D00000BF002084F83C0000BF00BF00BF21687C
:1047E000143151E8001F41F080002168143141E884
:1047F0000002002AF3D100BF0020BCE70220BAE784
:104800009D510008F55100087D5000087047704721
:1048100000BFFEE710B50E480E490860032048604F
:1048200000210C488160C1604FF4102101614FF4F8
:10483000001141610021017641768176C1760177D0
:104840004177FDF7EAFF08B1FDF780FC10BD0000DD
:10485000006400404003002008B500BF0020009025
:104860002A48006840F4800028490860084600682B
:1048700000F48000009000BF00BF00BF0020009047
:104880000846006840F4001008600846006800F41C
:104890000010009000BF00BF002205210B20FEF792
:1048A00061FE0B20FEF74EFE002205210C20FEF7D4
:1048B00059FE0C20FEF746FE002205210E20FEF7D1
:1048C00051FE0E20FEF73EFE002205211120FEF7CC
:1048D00049FE1120FEF736FE002205213920FEF7A1
:1048E00041FE3920FEF72EFE002205213A20FEF778
:1048F00039FE3A20FEF726FE002205214520FEF76C
:1049000031FE4520FEF71EFE08BD00003038024093
:1049100000B5A3B01C221E491CA8FBF73CFE0021D9
:104920001CA802F0C4FA1B4908601C2218491C315B
:1049300015A8FBF730FE002115A802F0B8FA1649B9
:1049400008601C22124938310EA8FBF724FE002112
:104950000EA802F0ACFA114908601C220C4954312F
:1049600007A8FBF718FE002107A802F0A0FA0C49DF
:1049700008601C22064970316846FBF70CFE0021D6
:10498000684602F094FA0749086023B000BD0000B1
:10499000D48F000810000020040000200800002030
:1049A0000C0000200000002000B587B0142102A8F0
:1049B000FBF723FE00BF002001904F48006840F045
:1049C00010004D4908600846006800F01000019092
:1049D00000BF00BF00BF002001900846006840F003
:1049E000400008600846006800F04000019000BFE9
:1049F00000BF00BF002001900846006840F00100A1
:104A000008600846006800F00100019000BF00BF88
:104A100000BF002001900846006840F002000860D6
:104A20000846006800F00200019000BF00BF00BF10
:104A3000002001900846006840F008000860084621
:104A4000006800F00800019000BF00BF00BF002018
:104A500001900846006840F0800008600846006841
:104A600000F08000019000BF00BF00BF0020019057
:104A70000846006840F0200008600846006800F022
:104A80002000019000BF00BF00224FF4FF711B48BF
:104A9000FEF7D2FC00224FF400611948FEF7CCFC6F
:104AA00000224FF480411748FEF7C6FC4FF4FF7018
:104AB00002900120039000200490059002A90F4865
:104AC000FEF7B2FB4FF4006002900120039000203B
:104AD0000490059002A90A48FEF7A6FB4FF4804017
:104AE00002900120039000200490059002A905483F
:104AF000FEF79AFB07B000BD3038024000180240B4
:104B0000001002400014024010B50B480B49086029
:104B10004FF4E1304860002108488160C1600161C4
:104B20000C21416100218161C161FFF7D5FA08B113
:104B3000FDF70CFB10BD000000780040680300206A
:104B400010B50B480B4908604FF4E1304860002174
:104B500008488160C16001610C21416100218161CF
:104B6000C161FFF7B9FA08B1FDF7F0FA10BD000016
:104B7000007C0040AC03002010B50A480A490860D8
:104B80000A484860002108488160C16001610C2129
:104B9000416100218161C161FFF79EFA08B1FDF713
:104BA000D5FA10BD00100140F0030020A0860100DE
:104BB00010B50B480B4908604FF4E1304860002104
:104BC00008488160C16001610C214161002181615F
:104BD000C161FFF781FA08B1FDF7B8FA10BD000016
:104BE000001401403404002000BFFEE700BFFEE7D0
:104BF000B0EE401A10B99FED810A704790ED100A8F
:104C000080ED110A90ED0F0A80ED100AC0ED060A42
:104C100080ED071A30EEC10A80ED0F0A01780029F5
:104C200071D190ED010AD0ED0F1A20EE210A80ED2E
:104C3000090A90ED0A0AD0ED021A90ED0F2A01EE52
:104C4000820A80ED0A0A90ED0D0A80ED0E0A90EDC1
:104C50000C0A80ED0D0A90ED0F0AD0ED101A30EE1F
:104C6000610A80ED0C0A90ED030AD0ED0C1A20EEDB
:104C7000210A80ED0B0A90ED0A0AD0ED051AB4EE78
:104C8000E10AF1EE10FA04DD90ED050A80ED0A0A62
:104C900010E090ED0A0AD0ED051AF1EE611AB4EEBB
:104CA000E10AF1EE10FA05D290ED050AB1EE400AE4
:104CB00080ED0A0A90ED090AD0ED0A1A30EE210AB9
:104CC000D0ED0B1A30EE210A80ED080A90ED0A0AA9
:104CD000D0ED0F1A20EE210AB5EEC00AF1EE10FA5F
:104CE00003D29FED460A80ED0A0A90ED080AD0ED46
:104CF000041AB4EEE10AF1EE10FA05DD90ED040AB3
:104D000080ED080A76E011E090ED080AD0ED041A73
:104D1000F1EE611AB4EEE10AF1EE10FA6AD290ED0A
:104D2000040AB1EE400A80ED080A63E00178012927
:104D300060D190ED0F0AD0ED101A30EE610AD0ED7F
:104D4000011A20EE210A80ED090A90ED020AD0ED49
:104D50000F1A20EE210A80ED0A0A90ED0D0A80ED6F
:104D60000E0A90ED0C0A80ED0D0A90ED0F0AD0EDC1
:104D7000101AB0EE002A02EE610AD0ED111A30EEE0
:104D8000210A80ED0C0A90ED030AD0ED0C1A20EEFA
:104D9000210A80ED0B0A90ED090AD0ED0A1A30EED7
:104DA000210AD0ED0B1A30EE210AD0ED081A30EEB0
:104DB000210A80ED080A90ED080AD0ED041AB4EE3D
:104DC000E10AF1EE10FA04DD90ED040A80ED080A24
:104DD00010E090ED080AD0ED041AF1EE611AB4EE7D
:104DE000E10AF1EE10FA05D290ED040AB1EE400AA4
:104DF00080ED080A90ED080AFFE6000000000000C0
:104E000000B102B97047017092ED001A80ED011AED
:104E100092ED011A80ED021A92ED021A80ED031A4A
:104E200080ED040AC0ED050A9FED0C1A80ED0E1A04
:104E300080ED0D1A80ED0C1A9FED081A80ED081A0E
:104E400080ED0B1A80ED0A1A80ED091A80ED111A17
:104E500080ED101A80ED0F1A00BFD3E700000000AC
:104E60002CE017480068C47A012C0AD100220221E4
:104E70001448FEF7E1FA01220C211248FEF7DCFA91
:104E800018E0022C0AD1002204210E48FEF7D4FAC1
:104E900001220A210B48FEF7CFFA0BE0032C09D1BF
:104EA000002208210748FEF7C7FA0122062105481B
:104EB000FEF7C2FA012001F0E9FF00BFD1E70000D0
:104EC000D40E002000180240002280210648FEF780
:104ED000B3FA07E0054A1168906801F0D5FC01209B
:104EE00001F0D4FFF6E7000000180240D40E0020C5
:104EF0002DED028B82B002F0C3FC1CE00E480C23A7
:104F0000C02201680D4801F0EFFE0B4840690068BF
:104F10004168084603F0DEFF41EC180B9FED080BDB
:104F20008DED000B53EC182B07A10A4802F0C6FCCC
:104F3000012001F0ABFFE1E7D40E00206803002060
:104F40000000000000005940252E31662C20252E3F
:104F500031660A003404002000BF012001F096FFF2
:104F6000FBE7000000224FF480710648FEF764FA68
:104F700007E0054A1168506801F0EAFE012001F0DF
:104F800085FFF6E700180240D40E002010B5FEF7AA
:104F90005FFA03F067F8012801D002F0B9FF10BDF5
:104FA00000B593B0302107A8FBF727FB142102A816
:104FB000FBF723FB00BF002001902448006840F06D
:104FC0008050224908600846006800F08050019037
:104FD00000BF00BF00BF002001901D48006840F4E2
:104FE00040401B4908600846006800F440400190BA
:104FF00000BF00BF012007900004089002200D9020
:1050000041050E9106210F91A821109102211191C5
:105010000421129107A8FEF737FC08B1FDF796F8B6
:105020000F20029002200390002004904FF4A05023
:1050300005904FF480500690052102A8FEF7E4FA8F
:1050400008B1FDF783F813B000BD000040380240FE
:10505000007000400348006840F470000149086097
:105060007047000088ED00E070B50546AC6B00208D
:10507000E085E0842046FEF7B5FE70BD70B50646BB
:105080000025B46B20684069C0F3C01594F83D005A
:10509000212805D125B10020E084204600F0F7F852
:1050A00020684069C0F3801594F83E00222805D19D
:1050B00025B10020E085204600F0A3F8206C40F0E8
:1050C000100020642046FEF78DFE70BD70B50546C9
:1050D000AC6B2868006800F48070002842D1E0853D
:1050E00000BF00BF21680C3151E8001F21F480701F
:1050F00021680C3141E80002002AF3D100BF00BF53
:1051000000BF2168143151E8001F21F0010021681F
:10511000143141E80002002AF3D100BF00BF00BFF4
:105120002168143151E8001F21F04000216814313A
:1051300041E80002002AF3D100BF202084F83E009D
:10514000206B01280ED100BF00BF21680C3151E84F
:10515000001F21F0100021680C3141E80002002AF4
:10516000F3D100BF206B012804D1A18D2046FEF7AA
:10517000F3FD02E02046FFF719FA70BD70B5054651
:10518000AC6B206B012805D1A08D41082046FEF7AD
:10519000E3FD02E02046FFF779FA70BD70B50546E1
:1051A000AC6B2868006800F48070F8B90020E084D7
:1051B00000BF00BF2168143151E8001F21F08000BA
:1051C0002168143141E80002002AF3D100BF00BF7A
:1051D00000BF21680C3151E8001F41F040002168F8
:1051E0000C3141E80002002AF3D102E02046FFF72B
:1051F0000DFB70BD70B50446A56B2846FFF707FB95
:1052000070BD00BF00BF02680C3252E8002F22F4CC
:10521000907102680C3242E80013002BF3D100BFFA
:1052200000BF00BF0268143252E8002F22F00101D3
:105230000268143242E80013002BF3D100BF016B67
:1052400001290ED100BF00BF02680C3252E8002FC6
:1052500022F0100102680C3242E80013002BF3D157
:1052600000BF202180F83E1000210163704710B577
:1052700004462068C06820F040002168C8602020F3
:1052800084F83D002046FFF7C1FA002010BD00BFA2
:1052900000BF02680C3252E8002F22F0C001026801
:1052A0000C3242E80013002BF3D100BF202180F81C
:1052B0003D107047F8B5044694F83E00222873D19B
:1052C000A068B0F5805F0CD1206950B90025A66AAE
:1052D00020684068C0F308003080A06A801CA0628B
:1052E00015E0A56A0026A068B0F5805F03D0A0682D
:1052F00028B9206918B920684068287004E020683F
:10530000406800F07F002870A06A401CA062E08D19
:10531000401E80B2E085002844D12068C06820F09B
:1053200020002168C8602068C06820F4807021686F
:10533000C8602068406920F0010021684861202091
:1053400084F83E00206B012826D10020206300BF96
:1053500000BF21680C3151E8001F21F010002168C6
:105360000C3141E80002002AF3D100BF2068006838
:1053700000F0100010280AD100BF00200090206823
:105380000068009020684068009000BF00BFA18DB9
:105390002046FEF7E1FC02E02046FFF707F9002077
:1053A000F8BD01E00020FBE70220F9E72DE9F84F06
:1053B00004462068006920F44050E16808432168F1
:1053C00008612169A068084361690843E1690843ED
:1053D00000902068C06849F20C6188430099084336
:1053E0002168C8602068406920F44070A1690843C2
:1053F0002168486176492068884203D07549206851
:10540000884203D1FEF7D8F9814602E0FEF7C4F9DD
:105410008146E069B0F5004F6CD102206168A0FBC5
:10542000015003461920A9FB007001462A46384660
:10543000FAF7E2FF6421B0FBF1F04FEA001A022014
:105440006168A0FB01510B461920A9FB00712A4697
:105450003846FAF7D1FF834602206168A0FB01506D
:1054600003461920A9FB00712A463846FAF7C4FF03
:105470006421B0FBF1F000EBC00101EB0010ABEBDD
:105480008000322101EBC0006421B0FBF1F000F09C
:10549000F8000AEB400A02206168A0FB01500346B5
:1054A0001920A9FB007001462A463846FAF7A4FFE6
:1054B000834602206168A0FB015003461920A9FB26
:1054C00000712A463846FAF797FF6421B0FBF1F0E5
:1054D00000EBC00101EB0010ABEB8000322101EBCF
:1054E000C0006421B0FBF1F000F0070050442168D7
:1054F00088606AE004206168A0FB0150034619201F
:10550000A9FB007001462A463846FAF775FF824625
:1055100004206168A0FB015003461920A9FB00701C
:1055200001462A463846FAF767FF6421B0FBF1F0DE
:1055300000EBC00101EB0010AAEB8000322101EB6F
:1055400000106421B0FBF1F000F0F00A0420616863
:10555000A0FB017003461920A9FB00513A462846DA
:10556000FAF74AFF6421B0FBF1F00AEB001A0420BD
:105570006168A0FB01510B461920A9FB00712A4666
:105580003846FAF739FF834604206168A0FB0150D2
:1055900003461920A9FB007001462A463846FAF74F
:1055A0002BFF6421B0FBF1F000EBC00101EB001018
:1055B000ABEB8000322101EB00106421B0FBF1F075
:1055C00000F00F00504421688860BDE8F88F0000AB
:1055D000001001400014014077B581B00446154623
:1055E0000298A062A58500202064222084F83E0055
:1055F0002A48A16BC8632A48A16B08642948A16B9B
:10560000C8640020A16B086502AE32682368191DCA
:105610002B46A06BFDF7ABFD00BF0020009020687B
:105620000068009020684068009000BF00BF00BF85
:10563000002084F83C0000BF206970B100BF00BFAB
:1056400021680C3151E8001F41F4807021680C3151
:1056500041E80002002AF3D100BF00BF00BF21686B
:10566000143151E8001F41F001002168143141E874
:105670000002002AF3D100BF00BF00BF216814312F
:1056800051E8001F41F040002168143141E8000258
:10569000002AF3D100BF002004B070BDCD50000837
:1056A0007D5100087D500008014691F83D002128F9
:1056B00028D18868B0F5805F0BD1086948B90A6ABB
:1056C0001088C0F308000B685860086A801C0862E4
:1056D00005E00B6A581C086218780B685860C88C83
:1056E000401E80B2C88458B90868C06820F08000A5
:1056F0000B68D8600868C06840F040000B68D8604C
:10570000002070470220FCE72DE9F04104460D46D9
:1057100017469846069E34E0701C88B32EB1FDF7FC
:1057200091FEA0EB0800B0422BD900BF00BF21685A
:105730000C3151E8001F21F4D07021680C3141E890
:105740000002002AF3D100BF00BF00BF216814315E
:1057500051E8001F21F001002168143141E80002E6
:10576000002AF3D100BF202084F83D0084F83E00D9
:1057700000BF002084F83C0000BF0320BDE8F0819A
:10578000FFE7206800682840A84201D1012000E01E
:105790000020B842C0D00020F0E7000070B51748E4
:1057A00002F0D6F8002500241448FEF725FB134824
:1057B00000680068C0F300158DB16FF010000F494C
:1057C000096808600D48FEF7C8FA0D48006840688F
:1057D00084B2C4F180000B4908800120088007488A
:1057E0000068C06840F0200004490968C860802251
:1057F00005490248FEF7B8FE70BD0000F003002026
:1058000038050020500000207807002070B50025E2
:1058100000241448FEF7F0FA124800680068C0F34C
:1058200000158DB16FF010000E49096808600D4831
:10583000FEF793FA0C480068406884B2C4F1800017
:105840000A4908800120088006480068C06840F0C6
:10585000200004490968C860802205490148FEF714
:1058600083FE70BD34040020580600205400002040
:105870007808002000BFFEE770B505460C460026FC
:105880000DB1022C01D8002070BDA11E4FF6FF7291
:105890002846FCF75FFC064607480680F1B2A01ECA
:1058A000285C814206D1601E285CB0EB162F01D126
:1058B0000120E9E70020E7E77200002070B5054607
:1058C0000C4600260DB1022C01D8002070BD611ECF
:1058D000FF222846FCF758FC0646601E285CB042B2
:1058E00001D10120F2E70020F0E703B40198410064
:1058F000009850EAC12018BF04204A0D18BF40F09C
:10590000010040F2FF72B2EB515F08BF40F00200AD
:10591000012808BF052002B0704700000248006857
:10592000C0F30220704700000CED00E010B5002825
:1059300004DB0A07130E054A135406E00A07140E87
:10594000034A00F00F031B1FD45410BD00E400E015
:1059500018ED00E00000000070B59B482DED020B33
:105960002DED068B079D25F00044A04218DC9748DA
:10597000844202DC0AD1069840B19DED060BBDECD5
:10598000068B02B0BDE8704000F0D6BE002DCCBF43
:105990009FED8F0B9FED900BBDEC068B02B070BDA1
:1059A0008F48A04215DD8F48A042D8BF4FF0FF348A
:1059B00058DD9DED060B51EC100BFFF796FF042808
:1059C00008BF00F0DDFE9DED060BBDEC068B02B0BE
:1059D00070BD9DED060B51EC100B01F0ADF9CDE95A
:1059E000060181489FED828BA0423CDD8248A042A7
:1059F0001FDD00249FED82AB9DED060B53EC1A2BAF
:105A000051EC100B02F0CEFC9DED060B41EC190B96
:105A100053EC1A2B51EC100B02F066FF53EC182BD1
:105A200003F06EF953EC192B02F070FDCDE906017D
:105A300049E09DED060B012453EC182B51EC100BA3
:105A400002F0B0FC9DED060B41EC190B53EC182B4A
:105A500051EC100B03F054F953EC192B02F056FDE6
:105A6000CDE906012FE06848A0421FDD02249FED2A
:105A7000689B9DED060B53EC192B51EC100B02F0BB
:105A800033FF53EC182B02F08DFC9DED060B41EC1F
:105A9000180B53EC192B51EC100B03F031F953ECAC
:105AA000182B02F033FDCDE906010CE09DED060B4D
:105AB000032453EC102B9FED580B51EC100B02F00C
:105AC00025FDCDE906019DED060B53EC102B51ECA5
:105AD000100B02F009FF41EC180B53EC182B02F0ED
