:020000040800F2
:1000000080520020950300084B3E0008D13B0008B9
:10001000493E0008831E00087D47000800000000DC
:10002000000000000000000000000000D5020008F1
:100030000D2000080000000031030008AD4000085A
:10004000AF030008AF030008AF030008AF030008C8
:10005000AF030008AF030008AF030008AF030008B8
:10006000AF030008AF030008AF030008AF030008A8
:100070002D1F0008AF030008AF030008AF030008FE
:10008000AF030008AF030008AF030008AF03000888
:10009000851E0008911E0008AF030008AF0300088A
:1000A000AF030008AF030008AF030008AF03000868
:1000B000AF030008AF030008AF030008AF03000858
:1000C000AF030008AF030008AF030008AF03000848
:1000D000AF030008A1450008AF0300082946000847
:1000E000AF030008AF030008AF030008AF03000828
:1000F000AF030008AF030008AF030008AF03000818
:10010000AF030008AF030008AF030008AF03000807
:10011000AF030008AF030008AF030008AF030008F7
:10012000AF030008391F0008451F0008AF0300088F
:10013000AF030008AF030008AF030008AF030008D7
:10014000AF030008AF030008AF030008AF030008C7
:10015000AF030008511F00085D1F0008DD460008BE
:10016000AF030008AF030008AF030008AF030008A7
:10017000AF030008AF030008AF0300080000000051
:10018000AF030008AF03000800F002F800F092F897
:100190000AA090E8000C82448344AAF10107DA45E2
:1001A00001D100F087F8AFF2090EBAE80F0013F0A2
:1001B000010F18BFFB1A43F00103184754600000F9
:1001C00074600000103A24BF78C878C1FAD852078A
:1001D00024BF30C830C144BF04680C6070470000C1
:1001E0000023002400250026103A28BF78C1FBD840
:1001F000520728BF30C148BF0B6070476E2900F01E
:10020000B382702900F0F583662905F09E85652983
:1002100005F09B85672905F09885612905F097858C
:1002200003681B0A28BF41F08001692900F0608241
:10023000642900F05D82752900F05A826F2900F070
:100240008283782900F0C183E92900F01D83E42925
:1002500000F01A83F52900F01783EF2900F07F835F
:10026000F82900F0C0830368DB0928BF41F0800152
:10027000632901F0C380732901F0C880E32901F0EC
:10028000D380F32901F0D880002070471FB505F016
:1002900057FD01F027F904000020002105F03AFD88
:1002A000401C60600020002105F01EFDE0601FBDC5
:1002B00010B510BD01F0E8F81146FFF7E7FF04F0B4
:1002C00051FD01F0C5F903B4FFF7F2FF03BC01F0E3
:1002D00009FA00002C4B19680868B0E8F04F80F369
:1002E0000988BFF36F8F4FF0000080F311887047CB
:1002F0000000000008480068006880F308884FF09C
:10030000000080F3148862B661B6BFF34F8FBFF36D
:100310006F8F00DF00BF00BF08ED00E0DFF80C00CA
:10032000016841F470010160704700BF88ED00E092
:10033000EFF30980BFF36F8F134B1A681EF0100F95
:1003400008BF20ED108A20E9F04F106009B44FF08B
:10035000500080F31188BFF34F8FBFF36F8F05F00C
:10036000D7FA4FF0000080F3118809BC19680868BB
:10037000B0E8F04F1EF0100F08BFB0EC108A80F309
:100380000988BFF36F8F704720000020EFF30580CE
:10039000704700000948804709480047FEE7FEE72C
:1003A000FEE7FEE7FEE7FEE7FEE7FEE7FEE7FEE725
:1003B00004480549054A064B7047000059410008AA
:1003C00089010008804C002080520020804E0020CF
:1003D000804E002053EA020C00F069802DE9F04BBA
:1003E0004FF00006002B1FBFB3FA83F503FA05F4A4
:1003F00024FA05F65E4012BF1643B2FA82F502FAFD
:1004000005F4C5F120051EBF22FA05FC44EA0C04E0
:10041000203556EA044C4FEA144418BF641C4FF0D0
:1004200000084FF00009904271EB030C39D300290A
:1004300019BFB1FA81F701FA07F6B0FA80F700FAAE
:1004400007F6C7F120071EBF20FA07FC46EA0C0694
:100450002037B6FBF4FCA7EB0507103F07F01F0B96
:10046000CBF120060CFA0BFB2CFA06F644BFB34680
:100470000026202FA4BF5E464FF0000B5BEA060C5F
:1004800008BF4FF0010B19EB0B09ABFB027C48EBEB
:100490000608C01B06FB02CC0BFB03CC71EB0C0166
:1004A000C1E70B46024641464846BDE8F08B13B50E
:1004B0004FF000004FF00001AFF30080BDE81C409A
:1004C000704700001CB50C46064B7B446946009003
:1004D000204600F062F904460020694600F070F9F9
:1004E00020461CBDF3020000032A40F2308010F0C9
:1004F000030C00F0158011F8013BBCF1020F6244BF
:1005000098BF11F801CB00F8013B38BF11F8013B4F
:10051000A2F1040298BF00F801CB38BF00F8013BFC
:1005200011F0030300F02580083AC0F0088051F86C
:10053000043B083A51F804CBA0E80810F5E7121D77
:100540005CBF51F8043B40F8043BAFF30080D20796
:1005500024BF11F8013B11F801CB48BF11F8012B62
:1005600024BF00F8013B00F801CB48BF00F8012B85
:10057000704710B5203AC0F00B80B1E81850203A0F
:10058000A0E81850B1E81850A0E81850BFF4F5AF33
:100590005FEA027C24BFB1E81850A0E8185044BFBD
:1005A00018C918C0BDE810405FEA827C24BF51F82A
:1005B000043B40F8043B08BF7047D20728BF31F81E
:1005C000023B48BF11F8012B28BF20F8023B48BF6F
:1005D00000F8012B70474FF0000200B51346944617
:1005E0009646203922BFA0E80C50A0E80C50B1F18B
:1005F0002001BFF4F7AF090728BFA0E80C5048BF9F
:100600000CC05DF804EB890028BF40F8042B08BF3C
:10061000704748BF20F8022B11F0804F18BF00F838
:10062000012B704770477047704770B50446856965
:100630000068C10601D5302600E02026C00707D09B
:1006400070BDD4E9012130469047206A401C2062E9
:100650006D1EF6D570BD70B5044685690078C0077B
:1006600007D170BDD4E9012120209047206A401CA9
:1006700020626D1EF6D570BD09684A0501D540B2ED
:100680007047C905FCD500B2704709684A0501D515
:10069000C0B27047C905FCD580B2704770B50C4632
:1006A0000546012A05D02878800600D5EA6900238E
:1006B00002E0012305E05B1C934202D2E05C0028CB
:1006C000F9D1A869E618C01AA861286A18442862F6
:1006D0002846FFF7AAFF04E0D5E9012114F8010B31
:1006E0009047B442F8D32846FFF7B5FF70BD00002D
:1006F0002DE9F0410646002410687529314616A5FB
:1007000010D0FFF7B9FF002802DA404213A507E036
:1007100031688A0701D512A502E0490704D511A561
:10072000012401E0FFF7B1FF00210A2206F12407AE
:1007300009E0B0FBF2FCB0FBF2F302FB1C0030302E
:1007400078541846491C0028F3D123462A463046DF
:10075000BDE8F04100F061BA000000002D0000008B
:100760002B0000002000000011680268006A530599
:1007700001D508700AE0D30501D5088006E013060C
:1007800003D5C217C1E9000200E0086001207047EC
:1007900001694A1C02610878704700B58FB0CDE945
:1007A00001310021059105497944CDE90310114635
:1007B000684600F029F90FB000BD0000E5FFFFFF1B
:1007C0000A6802F8010B0A60704700002DE9FF5F1C
:1007D00015468A460446DFF8AC80F8440027D8E97D
:1007E00000103E46CDE9001010E03AF816106A46B7
:1007F00002A800F025FE411C07D02178890603D508
:10080000E269391891420DD80744761C2078800699
:1008100002D5E069B84205DDAE42E6DB3AF81600E3
:100820000028E2D1A069C01BA0612046FFF7FDFEB1
:10083000D8E90010CDE90010002017E03AF81810B0
:100840006A4602A800F0FCFDB0F1FF3F81460BD0E4
:1008500000250DF1080B05E0D4E901211BF8050086
:1008600090476D1C4D45F7D308F10100B04280461A
:10087000E4DB206A384420622046FFF7ECFEBDE846
:10088000FF9F0000065900002DE9F0418046D21D6F
:1008900022F007020025D2E90002F52915A614D09E
:1008A000011E72F1000106DA0023D0EB030063EBB6
:1008B000020211A608E0D8F800108B0701D50FA698
:1008C00002E0490701D50EA601251146002408F1D2
:1008D000240704E000F05CF930323A55641C50EA19
:1008E0000102F7D12B46324621464046BDE8F04191
:1008F00000F093B9000000002D0000002B00000064
:100900002000000030B4002100F1240408E002F0CF
:100910000705D208303542EA4372DB086554491CAA
:1009200052EA0305F3D10468002310A2250707D576
:10093000A40600D421B1C46901230DA2641EC461C0
:1009400030BC00F06AB910B5044621461068FFF7C4
:100950009CFE02462046BDE810400023D2E7D21D8F
:1009600022F00701D1E90023CCE7000000000000DD
:1009700030000000F0B40D460188090502D5214C75
:100980007C4402E01F4C7C440E34002100F124061C
:1009900008E002F00F071209E75D42EA03721B0943
:1009A0007754491C52EA0307F3D102780023120757
:1009B00004D5702D06D009B1022311342246F0BCB3
:1009C00000F02BB901231034F8E770B504460D464A
:1009D00021461068FFF759FE024629462046BDE829
:1009E00070400023C6E7D21D22F00703D3E900239D
:1009F000C0E70368126843F0200303600823C36163
:100A00000023B7E7685700002DE9F05F89460446E8
:100A10004FF0000ADFF874B1FB44C0F820A0204674
:100A2000E1688847002874D0252806D0D4E9012140
:100A30009047206A401C2062F1E700265F4620466E
:100A4000E16888472028054607DB312D05D2781953
:100A500010F8200C08B10643F1E7B00701D526F0E5
:100A60000406C4F81CA00027C4F818A02A2D09D039
:100A7000284603F0DEFE38B304EB8708303DC8F8A3
:100A8000185019E059F8041B204604EB87029161C5
:100A9000E1688847012F054618D1E069002820DA6F
:100AA00026F020061DE0D8F8180000EB800005EBCA
:100AB00040003038C8F818002046E16888470546ED
:100AC00003F0B7FE0028EED1012F0AD02E2D08D159
:100AD0002046E16888477F1C0546022F46F0200625
:100AE000C4DBA069002803DA404246F00106A06199
:100AF000F00701D026F010066C2D0BD0682D09D020
:100B00004C2D39D06A2D35D0742D35D07A2D33D077
:100B100016E038E0E1682F4620468847B84205468F
:100B200009D16C2F26D04FF48060E168064320463F
:100B30008847054604E06C2F1AD04FF480700643B6
:100B40000DB3A5F14100192802D8203546F40066FE
:100B50004A462946204626604E46FFF74FFB80B1A5
:100B600001280BD0F61D26F0070000F1080956E712
:100B70004020E4E78020D8E70020D6E706F104090A
:100B80004DE7284652E7206ABDE8F09FF85600007E
:100B900030B5B0F10A024FEA900E71F100034EEA4F
:100BA000817EB0EB0E0061EB91014FEA101E4EEA20
:100BB000017E10EB0E0041EB11114FEA102E4EEAB0
:100BC000016E10EB0E0041EB11214FEA104E4EEA80
:100BD000014E10EB0E0041EB1141401841F10001B4
:100BE0004FEAD00040EA41704FEAD10110EB800596
:100BF0004FEA810444EA907444EB01046D1944EB1C
:100C00000404521BA3414FF0000348BF0A3200D531
:100C100030BD401C41F1000130BD2DE9F0470D46CB
:100C200099469246044600F124080168880604D5D6
:100C3000E06921F01001216000E00120A84201DDFF
:100C4000471B00E00027A1697A1902EB0900081A86
:100C5000A0612078C00602D42046FFF7E6FC0026FB
:100C600008E0D4E901211AF806009047206A401CE8
:100C7000761C20624E45F4DB2078C0060AD520465B
:100C8000FFF7D3FC06E0D4E9012130209047206A29
:100C9000401C2062381EA7F10107F4DC07E0D4E90C
:100CA000012118F805009047206A401C2062281E88
:100CB000A5F10105F3DC2046FFF7CDFC2078000606
:100CC00002D50220BDE8F0870120FBE770472DE93F
:100CD000FF4F0C461E464FF0FF378BB0D2E90001A4
:100CE000DDF860800A908A46C1F30A5505B93D4691
:100CF000002108464FF00000BAF1000F00F4400058
:100D000005DA00EB80004FF4400101EA50004FEAA1
:100D10009059B9F1010F00DDB9460A9850EA4A002E
:100D20000ED044F61050A5F2FF3545432F14B8F10C
:100D3000000F1ED07542291E1EDDC9F100021CE005
:100D4000B8F1010F4FF0000001D0302103E0F24371
:100D500005E02154401CB042FBDB3046002200215C
:100D600021540B99C1F80880C1E900200FB0BDE8FB
:100D7000F08FBD1B6D1CDEE74A4600DA694206A80B
:100D800000F0F4FB06AB93E8070003AB83E8070031
:100D900050460A9900F0ADFC8DE80700A0F5005020
:100DA0001F3800900398002D0ADD42F21F014A46C9
:100DB0000844002303A90390684600F016FF09E0E9
:100DC000A0F500504A461F38002303A90390684647
:100DD00000F020FF8DE807000004000C03D04FF066
:100DE000FF30410800E01046B8F1000F03D00022A8
:100DF000009215461EE0751E05D4FFF7C9FE30327D
:100E000062556D1EF9D5B3460122084302D0002277
:100E10007F1C04E02078302801D100227F1E002AA8
:100E2000099784D01DE0112D07DAFFF7B1FE3032AB
:100E300062556D1C50EA0102F5D1084302D00098BA
:100E4000C8B10EE00021681E05E0235C625C6354BB
:100E50002254401E491C8142F7DBAB46A81B401EB2
:100E60000990002004F80B000B98099AC0F808803C
:100E7000C0E9002B7AE711264FF0000857E72DE96B
:100E8000F04F88460446D21D22F0070191B0D1E907
:100E90000001CDE90A0103F0A4FC02460B98C00F43
:100EA00001D02D2007E02068810701D52B2002E02A
:100EB000202101EAC000032A099001D0072A05DB9E
:100EC00003464146204600F011FB0BE120788006E6
:100ED00001D5E06900E00620B8F1650F814606D033
:100EE000B8F1660F18D0B8F1670F70D131E000206B
:100EF000B9F1110F009001DB112301E009F10103A9
:100F00000AAA01A90CA8FFF7E2FEDDE90C70002691
:100F100009F10105834647E001204B4600904FF060
:100F200000470AAA01A90CA8FFF7D1FEDDE90DB020
:100F30000C995D46002610B909F101000D18B9EBB6
:100F4000050003D4C0F1FF3609F10105A5EB090046
:100F50002BE0B9F1010F01DA4FF001090020B9F1DE
:100F6000110F0090484601DD112300E003460AAA54
:100F700001A90CA8FFF7ABFEDDE90C704D46002679
:100F80008346207800070AD4AB4500DA5D4601A805
:100F9000012D04DD411911F8011C302907D04F45FE
:100FA00002DA17F1040F04DA012082460FE06D1E09
:100FB000EEE7002F02DCED1B3E4403E0781CA84264
:100FC00000DD7D1CB81B00F1010A4FF000472078BE
:100FD000000703D4AA4501DB4FF0FF3A0021B7F127
:100FE000004F0DF143088DF8431024D002202B232D
:100FF000002F01DA7F422D230A21021EA0F10100F9
:1010000000DC5FB197FBF1FC97FBF1F201FB1C7C6C
:1010100017460CF1300C08F801CDEEE7A8F10100FD
:1010200003702188090501D5452100E06521A0F163
:10103000010800F8011C09980FA9A1EB0807FF1D82
:1010400000B10120411901EBEA70A1693844081A86
:10105000401EA0612078C00602D42046FFF7E5FAC2
:10106000099828B1D4E901219047206A401C2062E8
:101070002078C00622D52046FFF7D7FA1EE0002EC2
:1010800004DBB34502DD01A8805D00E03020D4E937
:1010900001219047206A401C2062761CAAF10100C1
:1010A0005FEA000A0AD100F01DFAC0680168405CDE
:1010B000D4E901219047206A401C2062281EA5F136
:1010C0000105DCDC07E0D4E9012118F8010B9047A9
:1010D000206A401C2062381EA7F10107F3DC20467D
:1010E000FFF7B9FA032011B041E600002DE9F04FF7
:1010F00004460D46D21D22F0070089B0D0E90097C2
:101100004846394603F06DFB0246F80F01D02D2307
:1011100007E02068810701D52B2302E0202101EAA6
:10112000C0038DF820300BB1012000E00020032A1D
:10113000824601D0072A04DB2946204600F0D6F972
:101140003FE12078800601D40D2500E0E569C7F372
:101150000A560D2D49DA00214FEA175B08464FF079
:101160000000002F00F4400007DA00EB80004FF48D
:10117000400100EBD07001EA60008115012901DD1A
:101180004FF0FF3100224FEA850CBCF1180F06D357
:101190001346ACF118004FF08052C24003E04FF408
:1011A000801323FA0CF30CF10C0CBCF1200F04D3C8
:1011B000ACF1200C09FA0CF001E007FA0CF0002960
:1011C0004FF0004801DD18B90FE00ED140450CD3B7
:1011D00019EB02095F4121B9404502D19F4329EA39
:1011E0000209BBEB175F00D0761C2088000502D5F2
:1011F0007B48784402E07A487844193808AA3023BA
:1012000002F80A30037C0AF10101002E0AF1020AF9
:1012100053546A4602DC4FF0300101E04FF03101D7
:101220004FF001088DF8001002D0A6F2FF3603E05F
:1012300059EA470100D06B4E002D02DC21780907E6
:1012400004D54FF002082E218DF80110C44600216C
:101250000BE0C7F303433F01C35C491C6D1E02F85A
:101260000830052908F1010801DA002DF1DC002120
:101270000CE000EB1973491C1B786D1E082902F85D
:1012800008304FEA091908F1010801DA002DF0DCF5
:1012900021688B0602D516E0A8F10108E04505DDBE
:1012A00002EB080313F8013C302BF5D0B8F1000F26
:1012B00009DD02EB080313F8013C2E2B03D10907CB
:1012C00001D4A8F10108002D05DD3E2102F8081027
:1012D0006D1E08F10108407C002E02F8080008F19C
:1012E000010804DA2D20764202F8080002E02B20E3
:1012F00002F808000A214FF47A70864208F10108CA
:101300000BDB96FBF0F3303302F8083096FBF0F37A
:1013100008F1010800FB136601E0642E0CDB642079
:1013200096FBF0F3303302F8083096FBF0F308F147
:10133000010800FB136601E00A2E06DB96FBF1F0C4
:10134000303002F8080008F1010896FBF1F001FBCB
:101350001060303002F80800A16908F1010808EBBC
:10136000050202EB0A00081AA0612078C00602D428
:101370002046FFF75AF9216A08AE01EB0A00206205
:1013800004E0D4E9012116F8010B9047BAF1010AF3
:10139000F7D22078C00602D52046FFF746F96E4600
:1013A00009E016F8010B3E280FD0D4E9012190473F
:1013B000206A401C2062B8F10108F2D22046FFF7F3
:1013C0004AF909B00320BDE8F08F206A2844206262
:1013D00003E0D4E90121302090476D1EEBD3F8E7FC
:1013E000424F000002FCFFFF10B5436913B1AFF399
:1013F000008001E0FFF752F9012010BD127800F1E2
:1014000024010A7000224A700122EDE711684FF0B2
:10141000FF32E9E710B5436913B1AFF3008001E093
:10142000FFF7D4F9012010BD128800F12401828455
:101430000022C2840122EDE711684FF0FF32E9E794
:1014400070B516460C46054600F044F8036893F85C
:101450000101012806D0FF2C0FD8185D68B10120CA
:101460002C7070BDD3F807013246214603F20713F2
:1014700003442846BDE8704018474FF0FF3070BD68
:10148000004870471C4C00207546FFF7F9FFAE4638
:1014900005006946534620F00700854618B020B580
:1014A000FEF786FFBDE820404FF000064FF0000732
:1014B0004FF000084FF0000B21F00701AC46ACE8FC
:1014C000C009ACE8C009ACE8C009ACE8C0098D4669
:1014D0007047000010B500F005F8001D10BD00BFFA
:1014E00035480000004870473C4C00202DE9F04191
:1014F0001F46044603260168072A01F4006004DB46
:1015000008B116A505E016A503E008B115A500E091
:1015100015A521F010002060A069C01EA0610FB1C8
:10152000401EA0612046FFF780F84FB1D4E90121A9
:1015300038469047206A401C2062C01C206206E0AA
:10154000206AFAE7D4E9012115F8010B9047761ECD
:10155000F8D22046FFF77FF8BDE8F0814E414E00FB
:101560006E616E00494E4600696E66002DE9F047D7
:10157000814616468AB0354878440DC88DE80D007E
:1015800032487844801C03AC0DC884E80D0041F655
:101590009B300844372190FBF1F290FBF1F5A5F167
:1015A000800501FB12041B3C02D56442012000E0CF
:1015B0000020DFF898A080460027FA44AAF1BE0A6E
:1015C0000EE0E0070AD03246684607EB47010123E8
:1015D0000AEB810100F01EFB8DE8070064107F1C00
:1015E000002CEED1194F7F44AE3F19E0E80715D02B
:1015F00007EB04100DF1180A90E80E008AE80E00BF
:10160000C068F04201D1981908903246012306A91A
:1016100003A800F0FFFA03AB83E807006D10641C19
:10162000002DE3D14FF0010332466946B8F1000FB7
:1016300003A802D000F0D9FA01E000F0EBFAC9E902
:101640000001C9F808200AB0BDE8F0874C4C000042
:1016500010B50446AFF300802046BDE81040FEF709
:1016600032BE00004FF0013C50F8042B51F8043B0F
:101670009A4221D1A2EB0C03934313EACC1317D166
:1016800050F8042B51F8043B9A4215D1A2EB0C03FD
:10169000934313EACC130BD150F8042B51F8043BBD
:1016A0009A4209D1A2EB0C03934313EACC13DBD08B
:1016B0004FF00000704700BFD01A01BAB1FA81F1B3
:1016C00001F0180122FA01F0CB40C1F12001DBB298
:1016D000C0B2C01A2CFA01F3D11A914311EAC31116
:1016E000E6D1704701491820ABBEFEE72600020094
:1016F00070475FEA400C08BF91F0000F4FEA8C235F
:101700004FEAC12243EA51514FEA1C5018BF00F57D
:10171000F0404FEA300018BF41F000415FEA6C5CD6
:1017200000F02980BCF1FF3F08BF40F080407047C7
:10173000130C06BF12044FF0100C4FF0000C130EE8
:1017400004BF12020CF1080C130F04BF12010CF1BC
:10175000040C930F04BF92000CF1020CD30F04BFD2
:1017600052000CF1010C11464FF00002A0F11F00D5
:10177000A0EB0C00704711F0004F08BF704731F02C
:1017800000413FF4D5AF0B0C06BF09044FF0100C1D
:101790004FF0000C0B0E04BF09020CF1080C0B0FEC
:1017A00004BF09010CF1040C8B0F04BF89000CF17C
:1017B000020CCB0F04BF49000CF1010CCCF120034B
:1017C000A0EB0C0022FA03F302FA0CF241EA030147
:1017D00000F10100704720F07F4C80EA030023F005
:1017E0007F47ACEB070303F57C5300F0004003F1A7
:1017F000FF032DE980494FEA154B09B44FEA144322
:1018000025EA0B4E24EA03480FF2042606EB1327C1
:1018100049083E785FEA320203FB0667C7F5000716
:1018200007FB06F64FEA54374FEAD64606F10206A2
:1018300007FB066CCCF1005C4FEA1C472CEA074C16
:1018400007FB06F40CFB06F504EB15464FEA96166B
:1018500034BF00204FF000404FEAD13706FB07FCB1
:101860004FEA1C4C0CFB0BF7D21B03FB0CF761EB94
:1018700007010CFB0EF7B0EB074072EB17420CFBB5
:1018800008F734BFA2EB0742B2EB074261EB174106
:101890004FEA0C444FEA910706FB07FC4FEA1C4C49
:1018A0000CFB0BF7B0EBC74072EB573203FB0CF7A6
:1018B00034BFA2EBC742B2EBC74261EB57310CFB1E
:1018C0000EF7B0EBC70072EB57720CFB08F734BF92
:1018D000A2EBC702B2EBC70261EB5771039F4FEA5D
:1018E000816141EA921104EBCC044FEAD1374FEA0F
:1018F000826206FB07FC42EA90124FEA80604FEAE0
:101900001C4C0CFB0BF7D21B03FB0CF761EB070124
:101910000CFB0EF7B0EB074072EB17420CFB08F71D
:1019200034BFA2EB0742B2EB074261EB17414FEA2B
:101930008C554FEA910704EB9C2406FB07FC4FEA09
:101940001C4C0CFB0BF7B0EBC74072EB573203FBA0
:101950000CF734BFA2EBC742B2EBC74261EB573181
:101960000CFB0EF7B0EBC70072EB57720CFB08F7DD
:1019700034BFA2EBC702B2EBC70261EB577115EBA4
:101980004C254FEA816141EA92114FEA82624FEAA7
:10199000D13742EA901206FB07FC44F100044FEAFB
:1019A00080604FEA1C4C0CFB0BF7D21B03FB0CF7BF
:1019B00061EB07010CFB0EF7B0EB074072EB17422F
:1019C0000CFB08F734BFA2EB0742B2EB074261EB16
:1019D000174115EB1C154FEA813141EA92414FEA5C
:1019E000823242EA90424FEA80304FEA0C7644F16C
:1019F000000448EA03434EEA0B484FF0000EB2EBF6
:101A0000080C71EB030724BF624639464EEB0E0EFD
:101A10004FF0000B0018524149414BEB0B0BB2EB5E
:101A2000080C71EB03077BF1000B24BF62463946BB
:101A30004EEB0E0E4FF0000B0018524149414BEB9C
:101A40000B0BB2EB080C71EB03077BF1000B24BF0F
:101A5000624639464EEB0E0E51EA020718BF46F0B9
:101A6000010616EB0E7655F1000254F1000103D584
:101A7000BDE88901BDE80088BDE88901BDE80048EE
:101A8000B619524141EB0101A3F101037047808077
:101A90007F7E7D7C7B7A79787776767574737271C8
:101AA00071706F6E6E6D6C6C6B6A6A696868676680
:101AB00066656464636362616160605F5F5E5E5D12
:101AC0005D5C5C5B5B5A5A59595858575756565586
:101AD00055555454535352525251515050504F4FE8
:101AE0004F4E4E4D4D4D4C4C4C4B4B4B4A4A4A4938
:101AF000494948484847474747464646454545447B
:101B00004444444343434342424242414141002B07
:101B10009C4630D477002BD01CB54FEA370703B46E
:101B20004FF010004FF01001BAF1000F06D0BCF1D9
:101B3000000FDCBF40F0080040F008014FF000004B
:101B40000FBCBDE810400BF1010BBBF1010F08BF4A
:101B50005FEA170722BF12F1010211F101014FF0F4
:101B6000004143F1000300F0004043EA00007047E9
:101B7000F9D35708D0E746EA064613F1400F4FEA7B
:101B800016461FDD13F1200FDFBF16430A46002162
:101B900020335B42BED0C3F1200746EA064602FA74
:101BA00007F74FEA164646EA0706C3F1200722FA6E
:101BB00003F201FA07F721FA03F14FF0000342EABA
:101BC0000702A7E746EA020646EA06464FEA164635
:101BD00046EA0106BCBF46EA0646360C4FF0000353
:101BE0004FF000024FF0000194E72DE9804C9A4637
:101BF000934670B491E8380007C831EA400C48BFFA
:101C000034EA430C03D5FFF7E6FDFFF780FFF0BC95
:101C1000BDE8008C2DE9804C9A46934670B491E85B
:101C2000380007C810F0804F08BF13F0804F03D171
:101C300000F005F8FFF76BFFF0BCBDE8008C20F06A
:101C40007F4780EA030023F07F4C07EB0C03A3F5EA
:101C50007C5300F00040A3F1FE0392F0000F00F06F
:101C6000B38095F0000F00F077802DE901494FEA2D
:101C700011404FEA144621EA004800FB06FC24EA22
:101C8000064708FB06F607FB08F800FB07F718EB0A
:101C900006484CEB164C4FEA124B18EB07484FEA3C
:101CA00015464CEB174022EA0B4E0BFB06FC25EACF
:101CB00006470EFB06F607FB0EFE0BFB07F71EEBB7
:101CC000064E4CEB164C4FF000061EEB074E4CEB4D
:101CD000174B18EB0B0840F1000018EB0E0B58EBFC
:101CE000000840F100008F1A4FF000013CBFC943CB
:101CF000661B14BFB5EB040C00213CBFC943F61BA7
:101D00004FEA17444EEA8E0E27EA04454FEA1C4775
:101D100004FB07622CEA074C05FB07F70CFB05F6F2
:101D200004FB0CFC16EB074642EB174216EB0C4685
:101D300042EB1C421BEB060658EB0202414146EA0D
:101D40009E0601D5BDE80189B619524141EB01015A
:101D5000A3F10103BDE801894FEA14454FEA114799
:101D600024EA054621EA074C05FB07F406FB07F7C2
:101D70000CFB06F105FB0CFC11EB074144EB17448F
:101D80004FEA124711EB0C4144EB1C4422EA074C8A
:101D900005FB07F206FB07F70CFB06F605FB0CFC40
:101DA00016EB074642EB174216EB0C4642EB1C457E
:101DB0006A1854F1000148BF7047B619524141EB0F
:101DC0000101A3F10103704795F0000F37D04FEAEE
:101DD00011424FEA144721EA024624EA074C02FB6B
:101DE00007F106FB07F70CFB06F402FB0CFC14EBF7
:101DF000074441EB17414FEA154714EB0C4441EB04
:101E00001C4125EA074C02FB07F506FB07F70CFB14
:101E100006F602FB0CFC16EB074645EB174516EBE6
:101E20000C4645EB1C42121951F1000148BF7047A6
:101E3000B619524141EB0101A3F1010370474FEA8A
:101E400014454FEA114724EA054621EA074C05FBF1
:101E500007F106FB07F70CFB06F24FF0000605FB47
:101E60000CFC12EB074241EB174112EB0C4251EB19
:101E70001C4148BF7047921841EB0101A3F10103D7
:101E80007047FEE7014800F0ACBA00006C03002088
:101E9000014800F0A6BA00006C03002038B50E4CD3
:101EA0004FF4007525600025A560E56008252561D3
:101EB0000A4C050A25706070080AA070E170100ACB
:101EC00020716271180AA071E3716B4622460249C3
:101ED000034800F027F938BD904300208D00002012
:101EE0006C03002038B50E4C40F2FF15256000252C
:101EF000A560E560082525610A4C050A257060701B
:101F0000080AA070E170100A20716271180AA071AD
:101F1000E3716B4622460249034800F003F938BDDD
:101F2000A8430020950000206C030020014800F029
:101F30001DBD000020050020014800F017BD000075
:101F400080050020014800F011BD00006004002061
:101F5000014800F00BBD0000E0050020014800F042
:101F600005BD0000C004002001681823CAB2103A61
:101F7000B2FBF3F2054B6FF30901032A9B5CC365C7
:101F800000D9091D8165084670470000C45D00083E
:101F900010B5014600208B698A6A4FF0C07453B1B6
:101FA000B3F5005F15D072B1012A0CD0022A0AD015
:101FB000032A09D104E01AB1012A06D0022A03D16A
:101FC000C96AC90100D5012010BDC96AA142FAD071
:101FD00010BD002AF7D0012AF2D0022AF3D0032A3A
:101FE000F3D010BD30B50468256825F48025256040
:101FF000046863608368402B036803D099600068BD
:10200000C26030BD9A600068C16030BD704772B672
:10201000FEE700005FF0000220F81210521CD2B25E
:10202000102AF9D3002280F8202041847047000054
:10203000F0B5044690F8200089B0202224F8101052
:1020400094F820002146401C00F00F0084F8200086
:102050006846FEF749FA6B46102000263246401EBD
:1020600011E000BF03EB420733F91210B7F9025039
:10207000A94206DD69404D4069407D8023F8121079
:102080000126521CD2B28242ECDBC0B2002EE4D157
:10209000002102204FEA030232F91030401CC0B286
:1020A00019440E28F8D30C20891D91FBF0F000B2E2
:1020B000608409B0F0BD000010B558B1084C491E4D
:1020C0000BD310F8013B5340DBB234F8133083EAF2
:1020D0001222F4E74FF6FF7010BD104610BD00004D
:1020E000E45E000810B5054C04E000BF10F8013BA9
:1020F0005340E25C491EF9D2104610BDE45D000871
:1021000090F82020012A07D0022A05D0416A41F424
:102110008021416201207047006842690A434261A0
:1021200000207047F0B590F820500468A468012D95
:1021300005D0022D03D0416A41F4802153E014F010
:10214000406F01D1E5004BD5C4F30164022C03D9E3
:10215000416A41F4000146E00125A5401D608D68FB
:102160004FF4C0739DB1CE6835434E6845EAC6054D
:10217000066803EB0417F5514FF4C275076805EBC9
:1021800004150E697E51097D012905D009E00E88EC
:10219000CD6845EA4655EBE701684E5946F480762E
:1021A0004E511179D2F805504FF4C67641EA052513
:1021B000016806EB04168D511178D2F801204FF416
:1021C000C47541EA0221026805EB0415515100680B
:1021D00003EB0411425842F0010242500020F0BDCE
:1021E000416A41F4001141620120F0BD10B590F840
:1021F0002020012A07D0022A05D0416A41F480211B
:102200004162012010BD3B48D0F8002242F001029B
:10221000C0F80022D0F8002222F47C52C0F800223C
:10222000D0F800224B6A42EA0322C0F800220A7D5D
:1022300002F01F0301229A40D0F81C329343C0F8E9
:102240001C32CB69B3B9D0F80C329343C0F80C32CE
:102250008C894B6864F31F434C6900EBC404C4F8D9
:1022600040320C890B6864F31F434C6900EBC404D3
:10227000C4F84432CB69012B16D1D0F80C32134389
:10228000C0F80C320C884B6864F31F434C6900EBB8
:10229000C404C4F840320C89CB6864F31F434C6912
:1022A00000EBC404C4F844328B69002BD0F804322C
:1022B0000ED01343C0F804320B69002BD0F814324F
:1022C00008D01343C0F81432096A012904D008E089
:1022D0009343EFE79343F5E7D0F81C121143C0F89E
:1022E0001C12D0F8001221F00101C0F800120020E9
:1022F00010BD000000640040704730B590F82040E9
:10230000012C05D0022C03D0416A41F480215DE00C
:102310000468002955D02469A40754D04FF4D87418
:10232000056804EB01142D5915F004059560056846
:102330002D594ED0ED08556005682C5904F0020463
:10234000D4604FF4DA74056804EB01142D5905F0DC
:102350000F05156105682D59C5F3072595610568B9
:102360002C59240C54614FF4DC72046802EB011206
:10237000A4581C700468A458240A5C700468A4580B
:10238000240C9C700468A258120EDA704FF4DE72AE
:10239000046802EB0112A4581C710468A458240AB2
:1023A0005C710468A458240C9C710468A258120E35
:1023B000DA71006881B1016941F0200101610020FA
:1023C00030BDE468A8E7416A41F400114162012090
:1023D00030BD6D0D1560AFE7C16841F02001C160EF
:1023E000EDE72DE9F05F0546006800244669D0F866
:1023F00004908768D0F80CB0D0F810A0D0F81880FE
:10240000F10748D0F90714D001218160B80703D53E
:10241000284600F04AFA0CE0780702D54FF4006431
:1024200007E0380702D54FF4805402E0284600F058
:102430003BFAF80516D529684FF480708860B80516
:1024400003D5284600F033FA0CE0780502D544F4B1
:10245000005407E0380502D544F4804402E02846E1
:1024600000F024FAF80316D529684FF4803088600C
:10247000B80303D5284600F01CFA0CE0780302D517
:1024800044F4004407E0380302D544F4803402E009
:10249000284600F00DFA300707D55FEACB6004D577
:1024A0002968102044F40074C86070074FF00807D2
:1024B00007D55FEA0B7004D52868C760284600F08E
:1024C0005FF9B00706D52868C068800702D02846A3
:1024D00000F058F9700607D55FEACA6004D529688C
:1024E000102044F480640861B00607D55FEA0A70E2
:1024F00004D528680761284600F0A6F9F00606D53D
:1025000028680069800702D0284600F09EF9B003D1
:1025100008D55FEAC96005D52968102048602846BB
:1025200000F094F9F00307D55FEA097004D5286834
:102530004760284600F0BEF9300446D55FEA49708E
:1025400040D5F00504D55FEAC87001D044F001041D
:10255000B00504D55FEA887001D544F00204700527
:1025600004D55FEA487001D544F00404300529D54C
:1025700018F0700F26D008F07000402815D006DC47
:10258000102809D020280AD0302816D10AE0502877
:102590000ED0602811D10EE044F008040DE044F0A4
:1025A00010040AE044F0200407E044F0400404E092
:1025B00044F0800401E044F480742868816921F0CB
:1025C00070018161296804204860002C05D0686A88
:1025D000204368622846FFF78FFEBDE8F09F70B584
:1025E000040003D094F8200010B104E0012070BD75
:1025F000204600F081F82068016841F00101016087
:1026000000F024FC0546052604E000F01FFC401BFA
:102610000A2811D820684068C007F6D020680168F1
:1026200021F00201016000F011FC05460BE000F012
:102630000DFC401B0A2806D9606A40F40030606235
:1026400084F82060D2E7206840688007EFD4207EBD
:102650000128206801683DD021F080010160607E82
:1026600001282068016838D021F040010160A07E77
:1026700001282068016833D021F020010160E07E4C
:102680000128206801682ED041F010010160207FF0
:1026900001282068016829D021F008010160607FCD
:1026A00001282068016824D021F004010160D4E9E8
:1026B00002010843D4E90412114308436168491E2A
:1026C00008432168C86100206062012084F820006E
:1026D000002070BD41F08001C0E741F04001C5E736
:1026E00041F02001CAE721F01001CFE741F00801D5
:1026F000D4E741F00401D9E710B586B004461421AF
:102700006846FDF768FF1B49206888422FD11A48A8
:102710000021026842F000720260006800F0007060
:10272000059015481038026842F0080202600068FF
:10273000022200F0080005900320CDE90210CDE947
:1027400000020920049069460C4800F081FA00223A
:102750000521142000F0ECFB142000F0DBFB00222C
:102760000521152000F0E4FB152000F0D3FB06B096
:1027700010BD00000064004040380240000C0240E0
:102780007047000010B588B02A4B6A460021FFF759
:10279000B4FD009B274840F20524A3F20522A0F1D6
:1027A0002301A3422DD00FDCA3F58073413B37D02A
:1027B000C02B01D0C12B22D1009A1F4B521ED2B286
:1027C0000A7002EB820209E0012A1AD0022A16D10D
:1027D000DA1FD2B28A70194B02EB820203EB42017C
:1027E00033F812400C81048864BA23F812404288FE
:1027F00052BA4A80828852BA8A808079887108B039
:1028000010BDD2B24A7002EB82030D4A02EB4301C3
:1028100032F813400C81048864BA22F81340E6E7CA
:10282000084942780A7042884A8082888A80C08833
:10283000C880E4E7AD000020F04500200C4A0020ED
:1028400018460020C4000020704770477047000001
:1028500070B5044690F82000012804D0606A40F466
:102860000020606218E0022084F8200020680168DF
:1028700021F00101016000F0E9FA05460EE000BF19
:1028800000F0E4FA401B0A2808D9606A40F40030DE
:102890006062052084F82000012070BD2068406837
:1028A000C007EDD1606270BD7047704770477047D8
:1028B0007047704770472DE9F0410446876D00F07E
:1028C000C5FA064694F835000025022806D0802077
:1028D000606584F834500120BDE8F081206801680B
:1028E00021F0160101602068416921F080014161F9
:1028F000206C08B9A06C20B12068016821F00801A3
:1029000001602068016821F0010101600CE000F025
:102910009DFA801B052807D920206065032084F8D4
:10292000350084F83450D7E720680068C007EED13E
:1029300094F85C103F208840B860012084F835008E
:1029400084F834500020C7E790F83510022903D0EE
:102950008021416501207047052180F8351000680D
:10296000016821F001010160002070472DE9F84362
:1029700004464FF00009CDF8009063484FF416511B
:10298000A56D0068B0FBF1F72E6894F85C10082084
:1029900000FA01F131420FD021680A6852070BD5C5
:1029A0000A6822F004020A6094F85C108840A8606B
:1029B000606D40F00100606594F85C104FF0010814
:1029C00008FA01F0304208D021684969090604D5A7
:1029D000A860606D40F00200606594F85C1004200F
:1029E0008840304208D021680968890704D5A8606A
:1029F000606D40F00400606594F85C101020884021
:102A0000304218D021680968090714D5A8602068E9
:102A10000168490304D50068000308D5A16C07E0EC
:102A20000168C90503D4016821F008010160216C27
:102A300009B12046884794F85C1020208840304235
:102A400031D021680968C9062DD5A86094F83500F1
:102A500005282068016806D0490347D500680003AF
:102A60001DD4616C1CE021F01601016020684169F1
:102A700021F080014161206C08B9A06C20B1206870
:102A8000016821F00801016094F85C103F20884043
:102A9000A86084F8358084F83490216D1FE0E16BE4
:102AA00009B120468847606D00282BD0606DC007B3
:102AB00014D0052084F835002068016821F0010158
:102AC00001600098401C0090B84203D8206800685C
:102AD000C007F6D184F8358084F83490E16C002981
:102AE00010D001B02046BDE8F04308470168C90591
:102AF000D5D4016821F01001016084F8358084F894
:102B00003490CCE7BDE8F8831C0000202DE9F041AB
:102B1000044600F09BF906465CB1022084F83500BB
:102B2000002584F834502068016821F0010101601B
:102B30000DE00120BDE8F08100F088F9801B052838
:102B400005D920206065032084F83500F2E720686D
:102B50000068C007F0D12268116820480140D4E91C
:102B600001031843D4E90336334318436369184318
:102B7000A3691843E3691843236A18430843616A49
:102B8000042903D1D4E90B131943084310602068CA
:102B90004069666A20F0070130460E430127042889
:102BA0000CD1A06A0643E06A40B12046FFF7F0F975
:102BB00020B14020606584F83570BAE7206846612E
:102BC0002046FFF7D1F994F85C203F2191408160C5
:102BD000656584F835700020ACE700003F8010F098
:102BE0002DE9F0410446866D90F834000025012857
:102BF0000DD0012084F8340094F835700020012FA6
:102C000007D084F8340002252846BDE8F081022070
:102C1000FBE7022784F8357060652046FFF7E2F98C
:102C200094F85C103F208840B0602068016841F053
:102C300016010160206C20B12068016841F0080194
:102C400001602068016841F001010160DCE70000DB
:102C50002DE9F84FDFF8BCA10022012503264FF033
:102C60000F090AF1040BAAF1040E00BF0B6805FA64
:102C700002F42340A34270D10F7907F00307012F1C
:102C800001D0022F16D187684FEA420806FA08FCE5
:102C900027EA0C07D1F80CC00CFA08FC4CEA070C28
:102CA000C0F808C04768A7430C79C4F300149440E7
:102CB0003C4344600C79E443A4070AD0C4684FEA5B
:102CC000420C06FA0CF7BC438F6807FA0CF727434F
:102CD000C7600C7904F00304022C12D1D40800EB75
:102CE000840CDCF820405707FF0E09FA07F824EAA5
:102CF0000804D1F8108008FA07F848EA0408CCF86C
:102D0000208004684FEA420C06FA0CF7BC430F79A6
:102D100007F0030707FA0CF7274307604C6814F421
:102D2000403F70D03C4C276847F4804727602468B8
:102D300022F0030704F480440094384C07EB040CA1
:102D4000DCF8084897074FEA177809FA08F7BC43F8
:102D5000334FB84202D1002724E054E0314FB8424B
:102D600001D101271EE0304FB84201D1022719E0FE
:102D70002E4FB84201D1032714E02D4FB84201D1A4
:102D800004270FE02B4FB84201D105270AE02A4F54
:102D9000B84201D1062705E0284FB84201D10727E4
:102DA00000E0082707FA08F72743CCF80878DAF894
:102DB00000405746D1F804C09C435FEACC2C00D5B4
:102DC0001C433C60DBF800405F46D1F804C09C43E4
:102DD0005FEA8C2C00D51C433C60DEF8004077464F
:102DE000D1F804C09C435FEA8C3C00D51C433C6096
:102DF000084F083F3C68D1F804C09C435FEACC3CD4
:102E000000D51C433C60521C102AFFF42FAFBDE8D4
:102E1000F88F0000083C0140443802400030014077
:102E2000000002400004024000080240000C024082
:102E3000001002400014024000180240001C024032
:102E40000AB1816170470904FBE70000014880680E
:102E50007047000010000020024881680278114489
:102E600081607047100000200B4810B5016841F4E4
:102E700000710160016841F480610160016841F402
:102E800080710160032000F073F80F2000F006F855
:102E900000F024F8002010BD003C024070B50D4D3C
:102EA00004464FF47A712878B1FBF0F00A490968BA
:102EB000B1FBF0F000F010FB48B9102C07D2002253
:102EC0002146501E00F034F800206C6070BD0120D7
:102ED00070BD0000100000201C0000200C4882B0D3
:102EE000016841F480410160006800F48040009076
:102EF0000748001F016841F080510160006800220E
:102F000000F0805000900F21901E02B000F010B829
:102F100044380240002809DB00F01F0201219140E3
:102F20004009800000F1E020C0F800117047000067
:102F3000F0B40E4B1B680C46C3F30223C3F1070524
:102F4000042D00D90425191D072901D2002300E012
:102F5000DB1E012606FA05F1491E214099409E40DC
:102F6000761E16403143F0BC01F053BC0CED00E07E
:102F7000064900F0070208684FF6FF03184040EAD0
:102F80000220034A10430860704700000CED00E087
:102F90000000FA052DE9F0470E46050065D0DFF880
:102FA0001481D8F80000F7B200F00700B04207D251
:102FB00088F80070D8F8000000F00700B04254D143
:102FC00028683D4C810712D5400703D5206840F49E
:102FD000E05020602878000703D5206840F4604066
:102FE00020602068A96820F0F0000843206028785D
:102FF000C0072DD0304968680839012812D002284E
:1030000013D0032811D00968890700292DDA216817
:1030100021F0030101432160FFF718FF814641F2CF
:10302000883A0EE009688903EFE709688901ECE74F
:10303000FFF70CFFA0EB0901514502D90320BDE8C1
:10304000F0872068696800F00C00B0EB810FEFD1C9
:10305000D8F80010404601F00701B14207D90770C7
:10306000006800F00700B04201D00120E7E72878AF
:10307000400705D52068E96820F4E0500843206047
:103080002878000706D52068296920F4604040EAC6
:10309000C100206000F038F82168084AC1F303112C
:1030A000515CC8400649086006480068FFF7F6FE14
:1030B0000020C4E7003C024008380240CC5D000814
:1030C0001C0000201400002004480549006809681D
:1030D000044AC1F38221515CC84070471C000020A3
:1030E00008380240DC5D00080448054900680968AA
:1030F000044AC1F34231515CC84070471C000020B3
:1031000008380240DC5D0008154810B5006810F072
:103110000C02144813D01449042A0FD0082A0ED1E7
:103120000F4C241F2268236802F03F025B0207D580
:103130002068C0F38810A0FB010106E0084610BD1E
:103140002168C1F38811A1FB00010023FDF742F9BA
:103150002168C1F30141491C4900B0FBF1F010BDE9
:10316000083802400024F400001BB7002DE9F84F96
:1031700004006ED02078DFF84C93C007A9F1040555
:103180004AD009F104000168C1F38101012908D086
:103190000068C0F3810002280AD1D9F8000040027B
:1031A00006D52868800337D560680028E1D033E071
:1031B0006068B0F5803F10D0B0F5A02F286810D01F
:1031C00020F480302860286820F48020286060681F
:1031D000A8B1FFF73BFE06460DE0286840F48030BA
:1031E000F4E740F480202860F7E700BFFFF72EFEE9
:1031F000801B642873D828688003F7D50CE0FFF79C
:1032000025FE064605E000BFFFF720FE801B642870
:10321000F0D828688003F7D42078DFF8AC828007E4
:103220004FF0000A3ED5A748001D016811F00C0FB1
:1032300008D00068C0F3810002280BD1D9F8000043
:10324000400207D42868800716D5E068012800D11D
:1032500012E033E1E068B8B10120C8F80000FFF7E0
:10326000F5FD064605E000BFFFF7F0FD801B0228D4
:10327000C0D828688007F7D52868216920F0F800B1
:1032800040EAC10028600DE0C8F800A0FFF7DEFDAD
:10329000064604E0FFF7DAFD801B02281FD82868E5
:1032A0008007F7D42078000722D5864F87486169C8
:1032B000703771B101210160FFF7C8FD064604E0D7
:1032C000FFF7C4FD801B022809D838688007F7D5AE
:1032D0000EE0C0F800A0FFF7B9FD064605E082E069
:1032E000FFF7B4FD801B02287DD838688007F7D42B
:1032F0002078400768D5DFF8CCB100270BF13C0BF4
:10330000DBF80000C0000BD4DBF8001041F0805166
:10331000CBF80010DBF80000012700F0805000908F
:103320006B4E3068C00510D4306840F48070306057
:10333000FFF78CFD009005E0FFF788FD0099401A2B
:10334000022850D83068C005F6D55E4EA0686C36AD
:1033500001280FD00528306810D020F0010030601F
:10336000306820F004003060A068B8B1FFF76EFD4F
:1033700000900FE0306840F00100F4E740F00400F6
:103380003060F7E7FFF762FD0099411A41F288309B
:10339000814266D830688007F4D50EE0FFF756FD0D
:1033A000009007E0FFF752FD0099411A41F2883082
:1033B000814256D830688007F4D42FB1DBF8001072
:1033C00021F08051CBF80010A069C8B33D49091D18
:1033D0000968C1F3810102294AD00228504607D06A
:1033E000C8F8600000E03CE0FFF730FD04463BE039
:1033F0004746C8F86000FFF729FD064605E000BF14
:10340000FFF724FD801B02282BD828688001F7D401
:10341000D4E907010843A16A2E4A490802EB014199
:10342000626A41EA8211084394F82C1040EA016173
:10343000C9F8001001203866FFF708FD044606E0D1
:103440003EE000BFFFF702FD001B022809D82868F4
:103450008001F7D534E000BFFFF7F8FC001B02281D
:1034600002D90320BDE8F88F28688001F4D427E052
:103470000128F7D0D9F80000E26900F480019142F8
:103480001CD1226A00F03F01914217D147F6C0716A
:10349000626A0140B1EB821F10D1A26A4FF0FF3384
:1034A00000F4403103EB5202B1EB024F06D194F825
:1034B0002C1000F07060B0EB016F01D00120D1E75B
:1034C0000020CFE70438024000004742800E474208
:1034D000007000400000FFFF10B5401EB0F1807F7B
:1034E00001D3012010BD4FF0E02460610F2160176F
:1034F00001F08FF90020A06107202061002010BD9D
:10350000704710B504460068406994F83D10C0F358
:10351000C010212911D180B12068143050E8001F5B
:1035200021F0800140E80012002AF5D1606B08B15B
:10353000FFF7C1F9204600F0B9FE2068406994F811
:103540003E10C0F38010222911D180B120681430C0
:1035500050E8001F21F0400140E80012002AF5D198
:10356000A06B08B1FFF7A7F9204600F078FE002015
:1035700010BD016C090702D50068016840687047FA
:10358000F8B5016804460868CA684B6910F00F0F67
:103590004FF0000559D003F0010602F4907737434D
:1035A00065D0C10705D0D10503D5216C41F00101DB
:1035B0002164410705D5D90703D0216C41F00201F0
:1035C0002164810705D5D90703D0216C41F004019E
:1035D0002164010707D502F02001314303D0216C9B
:1035E00041F008012164216C00293AD0800604D5FD
:1035F000900602D5204600F067FE20684069216CE5
:10360000C0F38010090700D460B3204600F027FE05
:1036100020684069400621D52068143050E8001F1A
:1036200021F0400140E80012002AF5D1A06BA8B1BA
:103630006C490165A06BFFF787F9002811D0A06BDA
:10364000016D01B0BDE8F040084783060FD5930631
:103650000DD52046BDE8F84000F036BE2046FFF705
:1036600088FFF8BD2046FFF784FF2564F8BD266B70
:103670002023012E79D1C60677D5D60675D50868E0
:10368000486800904869400640D5A16B08684068CA
:103690000004000CEAD0A28D8242E7D9E085C86917
:1036A000B0F5807F2DD020680C3050E8001F21F449
:1036B000807140E80012002AF5D12068143050E8EB
:1036C000001F21F0010140E80012002AF5D1206816
:1036D000143050E8001F21F0400140E80012002A99
:1036E000F5D184F83E30256320680C3050E8001F87
:1036F00021F0100140E80012002AF5D1A06BFFF77D
:10370000DAF8A08DE18D401A81B229E0A08DE18D1B
:10371000401A81B2E08D0028A8D00029A6D02068E8
:103720000C3050E8002F22F4907240E80026002E62
:10373000F5D12068143050E8002F22F0010240E853
:103740000026002EF5D184F83E30256320680C3029
:1037500050E8002F22F0100240E80023002BF5D1A2
:103760002046FFF7CDFEF8BDFFE705062BD5150671
:1037700029D594F83D002128F5D1A068B0F5805FE7
:1037800001D12069B0B1206A411C21622168007812
:103790004860E08C401E0004000CE084E3D1206807
:1037A000C16821F08001C1602068C16841F040011A
:1037B000C160D8E7206A0088C0F308004860206A2A
:1037C000801C2062E5E74006CDD55006CBD5CA68FF
:1037D000204622F04002CA6084F83D3000F0F7F93C
:1037E000C1E700006941000870B5040004D094F8F6
:1037F0003D00002510B106E0012070BD84F83C506A
:10380000204600F023F8242084F83D002068C16899
:1038100021F40051C160204600F0B6FD2068016926
:1038200021F4904101612068416921F02A01416140
:103830002068C16841F40051C1602564202084F8EB
:103840003D0084F83E00002070BD00002DE9F04FDF
:1038500087B0044614216846FCF7BDFE9848DFF89F
:103860005C821438D4F800C0954B02210322002555
:10387000061587154FF0070BC44570D1D3F800C06B
:103880004CF0100CC3F800C01B6803F01003059344
:10389000036843F002030360036803F00203059327
:1038A000036843F0010303600068894600F00100EB
:1038B00005908020CDE90009CDE902529246D84614
:1038C0006946CDF810B07F48FFF7C2F97010CDE916
:1038D0000009CDE9025A6946CDF810807A48FFF711
:1038E000B7F9DFF8EC81794940464FF00069C8F834
:1038F0000010C0E90195C0E90356C8F81450C0E9AA
:103900000657C8F82050B246C8F82450FFF7FEF812
:1039100008B1FEF77CFB6E4E6C48C4F83880603608
:103920007830C8F83840E6E802094020A6E82104CB
:10393000674846F814596030C6E906573562756223
:10394000FFF7E4F808B1FEF762FB66630022052189
:103950002520B463FFF7ECFA25204BE0FFE7DFF802
:103960007481C4454BD1564B1B1FD3F800C04CF497
:10397000802CC3F800C01B6803F480230593036800
:1039800043F004030360006802AB00F004000590FC
:103990004FF44060CDE90001012083E80508694645
:1039A0004D48FFF755F9DFF828814C4908F1C00868
:1039B0004046C8F800104FF00061C0E90115C0E9A9
:1039C0000356C8F814504FF44031C8F81850C8E9ED
:1039D0000771C8F82450FFF799F808B1FEF717FBF4
:1039E000C4F83880002205212720C8F83840FFF7A6
:1039F0009FFA2720FFF78EFA07B0BDE8F08FDFF8B7
:103A0000E080C445F8D1D3F800C04CF0200CC3F8D6
:103A100000C01B6803F020030593036843F04003D4
:103A20000360006800F0400005904FF484408DE88A
:103A300023000820CDE9032069462A48FFF708F94A
:103A40002249DFF8A480183940464FF0206AC8F8B0
:103A50000010C0E901A5C0E90356C8F81450C0E938
:103A60000657C8F82050B946C8F82450FFF74EF85A
:103A700008B1FEF7CCFA1C4F1448C4F83880603700
:103A80006030C8F83840E7E8020A402061C71648AD
:103A900047F814596030C7E906593D627D62FFF767
:103AA00035F808B1FEF7B3FA676300220521472015
:103AB000BC63FFF73DFA47209CE70000001001407F
:103AC00044380240000402400000024040640240CA
:103AD00060040020004800400008024028600240C6
:103AE00000140140001802408005002090F83E308C
:103AF000202B0ED159B152B190F83C30012B08D097
:103B0000012380F83C300023036300F0C3BC012094
:103B10007047022070477047704700002DE9F84356
:103B2000044690F83D001F4616460D4620284CD10D
:103B3000C5B1BEB194F83C00012846D0012084F8FC
:103B40003C004FF00008C4F84080212084F83D007C
:103B5000FFF77CF9A6848146E684A068B0F5805F13
:103B600003D004E00120BDE8F883206928B12E4687
:103B70005FF0000584F83C800EE00026FAE7802123
:103B8000204600F0D1FCA0B9AEB116F8010B2168B7
:103B90004860E08C401EE084E08C4B464FF0000211
:103BA00000970028EBD14FF04001204600F0BCFC0C
:103BB00030B10320D7E735F8020BC0F30800E6E781
:103BC000202084F83D000020CDE70220CBE770479D
:103BD000FEE700000F4810B50D4901600321416068
:103BE00000214FF410228160C0E903124FF400124B
:103BF0004261017641768176C17601774177FEF7A1
:103C0000EEFC002803D0BDE81040FEF700BA10BD5E
:103C1000006400406C0300201D4808B5016841F4B1
:103C200080010160016801F480010091016841F4A4
:103C3000001101600068002200F4001000900521CE
:103C40000C20FFF775F90C20FFF764F9002205211D
:103C50003920FFF76DF93920FFF75CF900220521C3
:103C60003A20FFF765F93A20FFF754F900220521C1
:103C70004520FFF75DF94520FFF74CF900220521AB
:103C80004620FFF755F9BDE808404620FFF742B946
:103C90003038024010B59CB01C2216496846FCF72B
:103CA00068FC0021684601F079F9134C11491C2287
:103CB00020601C3107A8FCF75CFC002107A801F07C
:103CC0006DF90C4960601C2238310EA8FCF751FCDC
:103CD00000210EA801F062F90649A0601C225431AF
:103CE00015A8FCF746FC002115A801F057F9E06083
:103CF0001CB010BD545D00080000002070B586B0F7
:103D000014216846FCF767FC22480025016841F051
:103D100040010160016801F040010591016841F036
:103D200001010160016801F001010591016841F0A4
:103D300002010160016801F002010591016841F092
:103D400008010160016801F008010591016841F076
:103D500004010160016801F004010591016841F06E
:103D60008001016000680C4E00F080004FF4E054C8
:103D70000590002221463046FFF762F80120CDE988
:103D800000400220CDE9020569463046FEF760FF9B
:103D900006B070BD30380240001C02400C4810B51F
:103DA0000A4901604FF4E1314160002181600C2239
:103DB000C160C0E904128161C161FFF715FD0028EF
:103DC00003D0BDE81040FEF722B910BD001001403D
:103DD000940300200C4810B50A4901600B4941606A
:103DE000002181600C22C160C0E904128161C161BF
:103DF000FFF7FAFC002803D0BDE81040FEF707B932
:103E000010BD000000480040D8030020A08601003B
:103E10000C4810B50A4901604FF4E13141600021BE
:103E200081600C22C160C0E904128161C161FFF7A9
:103E3000DBFC002803D0BDE81040FEF7E8B810BD59
:103E4000001401401C040020FEE7FEE7A0B1D0ED05
:103E5000101AC0ED111A90ED0F1A80ED101AC0ED76
:103E6000060A80ED070A30EEC00A80ED0F0A0178DD
:103E700029B101293BD078E09FED3D0A7047D0ED94
:103E8000010A60EE801AC0ED091AD0ED0A0A90ED21
:103E9000022A42EE000A30EE410AC0ED0A0A90ED15
:103EA0000D2A80ED0E2A90ED0C2A80ED0D2A80ED72
:103EB0000C0A90ED031A21EE001A80ED0B1A90ED1A
:103EC000050AF4EEC00AF1EE10FA09DCB1EE400A80
:103ED000F4EEC00AF1EE10FA02D390ED0A0A01E006
:103EE00080ED0A0A31EE800A30EE010A2BE070EE16
:103EF000410A90ED012A20EE822A80ED092AD0EDB8
:103F0000020A60EE800AC0ED0A0AD0ED0D2A72EEB8
:103F1000200AC0ED0E2AD0ED0C2AC0ED0D2AF0EEDD
:103F2000002A01EE620A30EE210A80ED0C0A90EDC3
:103F3000031A21EE000A80ED0B0A30EE800AD0ED64
:103F4000080A30EE200A80ED080AD0ED040AB4EE2B
:103F5000E00AF1EE10FA06DCF1EE600AB4EEE00AD7
:103F6000F1EE10FA01D2C0ED080A90ED080A704790
:103F700000000000002828D0002A26D0017092ED11
:103F8000001A80ED011A92ED011A80ED021A92EDED
:103F9000021A80ED031A80ED040A9FED0C0AC0EDB1
:103FA000050A80ED0E0A80ED0D0A80ED0C0A80ED09
:103FB000080A80ED0B0A80ED0A0A80ED090A80EDFF
:103FC000110A80ED100A80ED0F0A70470000000012
:103FD00030B5144B1C68656945F0400565611B6888
:103FE000DC6844F01004DC600F4B1C68256825F089
:103FF000010525601C682568ED07F7D11D680B4C8D
:10400000AC601C68E060186801611868426018685C
:10401000016841F4802101601868016841F00101E4
:10402000016030BDD8030020200500200448004076
:10403000012211030548FEF703FF054CD4E90010E7
:1040400000F0FEFB012000F09DFFF7E7001C02409E
:10405000444B002001F0FCFA012000F093FFFBE745
:10406000012000F08FFFFBE7012291020D48FEF7CF
:10407000E7FE4FF4FA75284600F084FF0A4CA16869
:1040800060690A680089508549684FF487704885DF
:104090004FEA050000F076FF2168A06800F030FDCF
:1040A0000120F7E7001C0240444B002010B5FEF74A
:1040B000D3FE01F043FD012803D0BDE8104001F01C
:1040C000CFBC10BD30B593B030216846FCF783FA01
:1040D00014210CA8FCF77FFA1D480025016841F067
:1040E00080510160006800F080501190194801680B
:1040F00041F4804101600068022400F48040119086
:1041000001200090000401908001CDE906400620C6
:104110000890A820CDE9090404200B906846FFF719
:1041200025F808B172B6FEE70CA90F2081E831002E
:104130004FF4A0500F904FF48050109005210CA820
:10414000FEF728FF002801D072B6FEE713B030BD9D
:1041500040380240007000400248016841F470019C
:104160000160704788ED00E010B5806B0021C185CB
:10417000C184FFF7FEF910BD70B5846B20684069FB
:1041800094F83D10C0F3C0100025212904D118B1C6
:10419000E584204600F08AF82068406994F83E10D3
:1041A000C0F38010222904D118B1E585204600F023
:1041B00056F8206C40F0100020642046FFF7D9F933
:1041C00070BD10B50146806B09680968C9052FD418
:1041D0000021C18501680C3151E8002F22F4807262
:1041E00041E80023002BF5D10168143151E8002F7C
:1041F00022F0010241E80023002BF5D101681431BF
:1042000051E8002F22F0400241E80023002BF5D1B5
:10421000202180F83E10016B012909D101680C3181
:1042200051E8002F22F0100241E80023002BF5D1C5
:10423000016B012902D0FFF76EFC10BD818DFFF7E5
:104240005FF910BD10B5806B016B012902D0FFF73B
:1042500063FC10BD818D4908FFF752F910BD01685C
:104260000C3151E8002F22F4907241E80023002B1A
:10427000F5D10168143151E8002F22F0010241E824
:104280000023002BF5D1016B012909D101680C3104
:1042900051E8002F22F0100241E80023002BF5D155
:1042A000202180F83E1000210163704701680C3125
:1042B00051E8002F22F0C00241E80023002BF5D185
:1042C000202180F83D10704708B590F83E10222953
:1042D00001D0022008BD82684FF480539A4201D178
:1042E000016921B1816A9A421BD04AB10AE0026891
:1042F000816A5268C2F308020A80816A891C08E058
:10430000026972B10268526802F07F020A70816A23
:10431000491C8162C18D491E0904090CC18503D065
:1043200019E002685268F1E70168CA6822F02002C9
:10433000CA600168CA6822F48072CA6001684A696A
:1043400022F001024A61202180F83E10016B012910
:1043500003D0FFF7E0FB002008BD002101630168E6
:104360000C3151E8002F22F0100241E80023002B0D
:10437000F5D101680A68D20602D50A684968009139
:10438000818DFFF7BDF8E6E770B504460068016966
:10439000E26821F44051114301612169A068E2699A
:1043A00008436169114308432168CA6849F20C63F4
:1043B0009A430243CA6020684169A26921F44071AE
:1043C0001143416131492068884202D03049884216
:1043D00002D1FEF789FE01E0FEF776FEE2690023D6
:1043E000192164253226B2F5004F626828D0A0FB5F
:1043F0000101930F9200FBF7EDFF0146B0FBF5F0D2
:104400006FF01802504301EB800006EB0010B0FB88
:10441000F5F000F0F002B1FBF5F002EB0012B1FB99
:10442000F5F06FF01803584301EB800006EB001025
:10443000B0FBF5F000F00F0021681044886070BDFB
:10444000A0FB010192185B41FBF7C4FF0146B0FBE2
:10445000F5F00201B1FBF5F06FF01803584301EBE2
:10446000800006EBC000B0FBF5F000F0F80002EBB6
:104470004002B1FBF5F0584301EB800006EBC000B1
:10448000B0FBF5F000F00700D6E700000010014097
:104490000014014038B58162828500251346044628
:1044A0000564222084F83E00A26B1C48D063A26BF6
:1044B0001B481064A26B1B48D064A06B0A460565BC
:1044C0002168A06B091DFEF78BFB2068016840681E
:1044D000009084F83C50206948B120680C3050E8C6
:1044E000001F41F4807140E80012002AF5D12068D5
:1044F000143050E8001F41F0010140E80012002A8A
:10450000F5D12068143050E8001F41F0400140E828
:104510000012002AF5D1002038BD0000C341000878
:1045200045420008794100082DE9F04198461746B8
:104530000E460446069D27E0681C25D02DB1FEF7E7
:1045400085FCA0EB0800A8421ED920680C3050E87A
:10455000001F21F4D07140E80012002AF5D1206834
:10456000143050E8001F21F0010140E80012002A39
:10457000F5D1202084F83D0084F83E00002084F826
:104580003C000320BDE8F0812068006836EA0000A6
:1045900004D00020B842CFD00020F3E70120F9E793
:1045A00070B51D4E0024305DF12810D13519687C9E
:1045B000FE280CD12846042100F000F938B1A97872
:1045C000284600F0DDF810B1284600F069FA641CB6
:1045D000802CE8DB1148FEF7D3FF104C21680868F7
:1045E000C0F3001058B16FF0100008602046FEF7CD
:1045F00088FF0B48006840680A4801214180206814
:10460000C16841F02001C160BDE8704080220249CC
:104610000248FFF76BBA0000F0440020940300202A
:1046200060040020B8000020264818B40068016823
:10463000890604D501684068009018BC704722497B
:104640000968C906F9D501684068204A00901068D9
:1046500001684FF024030C031D49046824F0010491
:10466000046016D410684468C4F12404A4B20C8019
:1046700043601068016841F400210160106801681E
:1046800041F001010160122CD7D1124901F116004D
:1046900015E014686068C0F1240080B2088063608F
:1046A0000D498B6A23F400238B6211680A6842F07B
:1046B00001020A601228C0D1064901F13A0018BC73
:1046C00000F018BFD803002000480040200500205B
:1046D0008800002030430020006002402DE9F843AC
:1046E000224F234E0025705D5A281CD17419607822
:1046F000A52818D1B4F802800020ADF80000A7F872
:10470000068021460422684600F0B2F9A11D424607
:10471000684600F0ADF9A088BDF80010884202D1CB
:10472000204600F007FB6D1C802DDCDB1148FEF7F6
:1047300027FF104C21680868C0F3001050B16FF0DB
:10474000100008602046FEF7DCFE0B480068406859
:104750000120B8802068C16841F02001C160BDE837
:10476000F843802202490348FFF7C0B9B80000208F
:10477000704500201C04002080050020FEE700009A
:1047800030B50C46050015D0022C13D94FF6FF7238
:10479000A11EFDF791FC0849C2B20880291911F841
:1047A000023C9A4206D111F8011CB1EB102F01D145
:1047B000012030BD002030BDCC00002030B50C46BB
:1047C00005000CD0022C0AD9FF22611EFDF78AFCDD
:1047D000291911F8011C814201D1012030BD0020AE
:1047E00030BD03B401984100009850EAC12018BFC1
:1047F00004204A0D18BF40F0010040F2FF72B2EBF6
:10480000515F08BF40F00200012808BF052002B038
:1048100070470907090E002804DB00F1E02080F84A
:104820000014704700F00F0000F1E02080F8141D24
:10483000704730380A2801D20120704700207047A5
:1048400070B50D46044600F049FE2946204600F0AA
:1048500045F8606800231A46006990ED080AB1EE39
:10486000400ABDEEC00A10EE100A01B220680069CD
:1048700090ED080ABDE87040BDEEC00A10EE100AC7
:1048800000B2FDF70BBB000070B516462DED028B94
:10489000B0EE618AF0EE418A054600F035FB0C4C23
:1048A00000F11801F0EE480AC4E90001094901606D
:1048B00001F10A006168B0EE680A086031462846D6
:1048C00000F07AFA0449A0600160BDEC028B70BD73
:1048D000FC4B0020F04500200C4A002010B5437B23
:1048E000816804464FF47A52012B46D00020022BF7
:1048F00002D0032B0BD105E0888221688882616891
:10490000888204E088822068828260688282A0684F
:10491000B0F9141000EE101A01680069F8EEC00A30
:10492000B1F9021000EE101AB8EEC00AFFF78EFAC5
:104930002068B0F9141000EE101A01680069F8EE52
:10494000C00AB1F9021000EE101AB8EEC00AFFF763
:104950007DFA6068B0F9141000EE101A0168006961
:10496000F8EEC00AB1F90210BDE81040494200EE6D
:10497000101AB8EEC00AFFF769BA42F21070C1E728
:1049800000B58BB000200121CDE90601089100900F
:104990000190029003900590049069460548FDF748
:1049A00025FC0448FDF754FF02210248FDF7A8FB4F
:1049B0000BB000BD6C03002010B5204C1E48264AE9
:1049C000DFED211ADFED220A9FED220AA2F10C0190
:1049D0002DED028B82B02060194860609FED1B8A2C
:1049E00018482061B0EE481A0020FFF74DFF1B4821
:1049F000A0601B48606118489FED1B0A1838A0F1A1
:104A00000C03A0F11802A0F124010090F0EE483A46
:104A1000B0EE483AF0EE482A9FED122AF0EE401A26
:104A2000B0EE401ADFED110A002000F0B7F802B036
:104A3000BDEC028B10BD000030430020444B002031
:104A4000FC4B00200C4C0020000000000060EA46F7
:104A500000409C4500C05A460C010020EC4B002051
:104A6000384B002000409C460000FA4500004844B6
:104A7000F0B50388002541F221070CE04C5D0026CB
:104A800083EA04235C001B0400D57C40761C23468B
:104A9000082EF7D36D1C9542F0D30380F0BD0000C3
:104AA0004178084BC91FCAB28178C02906D0C129F4
:104AB00006D11B69011D1846FBF716BD1B68F9E7F7
:104AC00070470000444B00200168B1F92A20A2F190
:104AD0000A030F2B01D8192203E0DC3A142A01D86B
:104AE000DC224A854068B0F92A10FA2902DCFA2152
:104AF000418570474FF48C729142FADB42857047D2
:104B000038B50D46044600F09DFC2046FFF7DCFF5B
:104B10002946204600F072F8607B1B4D02282DD0FC
:104B200068685FF000038068006990ED080ABDEED8
:104B3000C00A10EE100A02B26068006A90ED080A1E
:104B4000BDEEC00A10EE100A01B22068006A90EDB6
:104B5000080ABDEEC00A10EE100A00B2FDF7C2F955
:104B60006068B0F92A000090686921680368B1F9AB
:104B70002A20816805A000F017FD38BD00231A46E1
:104B800019461846EAE70000444B002025642C250E
:104B9000642C25642C25640A0000000038B5049CB0
:104BA000009400F029F9134900F13002C1E9000234
:104BB00030328A60104A026002F10A004A681060CE
:104BC00089680A3008600B4800219038FDF722FA06
:104BD000084800216C38FDF71DFA064800214838C6
:104BE000FDF718FABDE83840024800212438FDF7E7
:104BF00011BA0000EC4B0020184600202DE9F041CE
:104C000005464A482A684369B2F92A1018891B8860
:104C100000B21EB26B688142B3F92A4008DD431A24
:104C20000F1A03F5B4739F420CDDA1F5B47109E0CE
:104C3000884207DD0B1A471A03F5B4739F4201DD62
:104C400001F5B47100EE101AD169F8EEC00A00EE59
:104C5000100A0846B8EEC00AFFF7F8F8B44208DDBB
:104C6000301BA11B00F5B47081420CDDA4F5B474B7
:104C700009E0A64207DDA01B311B00F5B47081429C
:104C800001DD04F5B47400EE104A6868F8EEC00A5D
:104C900000EE106AC069B8EEC00AFFF7D7F82868BE
:104CA000C16991ED080ABDEEC00A10EE101A018527
:104CB0006868C16991ED080AB1EE400ABDEEC00A0C
:104CC00010EE101A01852868B0F928101848FDF771
:104CD000AFF96868B0F9281015482430FDF7A8F935
:104CE000134CB4F9220000EE100A2868F8EEC00A4E
:104CF0000168006AB1F9021000EE101AB8EEC00A9D
:104D0000FFF7A4F8B4F9460000EE100A6868F8EE60
:104D1000C00A0168006AB1F90210BDE8F04100EE76
:104D2000101AB8EEC00AFFF791B80000444B0020FB
:104D30005C4B002010B550F8224F09494268836847
:104D40004FF47A7094FBF0F492FBF0F293FBF0F0E6
:104D5000B434B4320C604A60B430886010BD0000D6
:104D6000384B0020FEF780F8FFF7ACF9FEF7C6FFDE
:104D7000FEF752FFFFF712F8FEF72CFFFFF72AF8B5
:104D8000FFF746F800F0AEFBFFF7FAFDFFF714FE61
:104D900000224FF4E0510448FEF752F8FEF77AFF84
:104DA00000F0F7F8FEE70000001C0240014600207A
:104DB000842900D0C81C704703460D4810B500F583
:104DC0008A7242F8100B9C3042F80C0991ED001ADF
:104DD00082ED001A91ED011A82ED011A91ED021A8D
:104DE000194682ED021AFFF7C5F8024810BD00000F
:104DF0000C4A0020204B00202DE9F041414C054693
:104E00002DED068BF0EE41AAB0EE638AF0EE438AF8
:104E100091ED004A0C9884ED014A91ED014AB0EE03
:104E2000629A84ED024A91ED024AF0EE429A84EDD4
:104E3000034A92ED004AB0EE61AA84ED0D4A92ED6C
:104E4000014A84ED0E4A92ED024A002284ED0F4A97
:104E500093ED004A84ED044A93ED014A84ED054A3E
:104E600093ED021AA4F5547384ED061A90ED001A1E
:104E700003F5A07684ED101A90ED011A03F506777C
:104E800084ED111A90ED021A84ED121A02EB8200E1
:104E900003EB400102EB420004EB0010016002EB67
:104EA000C20106EBC10C07EBC101C0E907C1521CEE
:104EB000032AEBD3221D2946E069FFF75BF8114A6C
:104EC000F0EE4A0AB0EE6A0A34322946E06CFFF787
:104ED00051F80C4AF0EE490AB0EE690A1032294640
:104EE000206AFFF747F8074AF0EE480AB0EE680A72
:104EF00040322946206DFFF73DF8BDEC068B014896
:104F0000BDE8F081684900202DE9F0471C4F0D46AF
:104F10002DED028B07F1F806B0EE608AF0EE408AC4
:104F200081460024A6F1D80804EB840004EB440178
:104F300007EB400046F8310004EBC40208EBC20066
:104F400006EBC102F0EE480A106195ED001AB0EED2
:104F5000680A82ED011A95ED011A494682ED021A9E
:104F600095ED021A82ED031A121DFFF703F8641C77
:104F7000022CD9D30248BDEC028BF830BDE8F08793
:104F8000F849002010B500B9012000F05DFC0020B8
:104F900010BD10B500F07EFC002010BD7FB50D46A1
:104FA00004464169B0F9080081B1A16971B1FFF708
:104FB000FDFED4E905128DE80700D4E900102B4668
:104FC000226900F090FD039004B070BDFFF7EEFE83
:104FD00003A9CDE90001208A2B4682B2D4E9001052
:104FE00000F054FD012801D00020EDE70398EBE725
:104FF0002DE9F041184C0F460546E6682068001D73
:1050000000F05AFB38B9206890F82C100120884035
:10501000216981432161681C07D137B12168BDE84E
:10502000F0410E48091D00F08BBB20683544B542A5
:105030004560216805D2A06BBDE8F041091D00F074
:1050400067BB606B091D00F063FBA06A854200D25C
:10505000A562BDE8F0810000200000201C070020B0
:105060002DE9F041054600F077FB2E4CA068401C6E
:10507000A06020682C4F10B1606940B32DE025601E
:10508000A068012829D1002606EB860007EB8000E6
:1050900000F030FB761C072EF6D323488C3000F04E
:1050A00029FB2148A03000F025FB1F48B43000F058
:1050B00021FB1D48C83000F01DFB1B48DC3000F010
:1050C00019FB19488C3060631430A06305E0206838
:1050D000E96AC06A884200D82560606A401C606244
:1050E000E96A0120226988401043206101EB8100B8
:1050F00007EB8000291D00F023FB00F04DFB6069E9
:1051000000280CD02068E96AC06A884207D20749A3
:105110004FF080500860BFF34F8FBFF36F8FBDE833
:10512000F0810000200000204006002004ED00E097
:1051300010B5044690F8510058B101280CD002284F
:105140000FD0502080F31188BFF34F8FBFF36F8FC4
:10515000FEE7206B00F034FB2046BDE8104000F075
:105160002FBB10BD10484FF47051420706D0C01D30
:105170000D4920F00700411AC1F570510B4A002378
:105180000144C2E900030839183A21F0070111600F
:105190004B600B600B1AC0E9001393604FF00040A6
:1051A00053605061704700003007002074000020F9
:1051B000144E154CA6F1C8074FF08058DFF84C90FC
:1051C00012E000BF00F0C8FAF068C568281D00F0C2
:1051D00073FAA068401EA0606068401E606000F026
:1051E000DBFA2846FFF7A4FF60680028EAD1386898
:1051F0000128F9D9C9F80080BFF34F8FBFF36F8F33
:10520000F2E70000080700202000002004ED00E085
:105210002DE9F0479A46DDE9098481466FF00303E2
:10522000206B03EB82021044089E20F007077807EA
:1052300007D0502080F31188BFF34F8FBFF36F8FDB
:10524000FEE7002561B1002023180A5C83F83420B2
:105250000A5C12B1401C1028F6D384F8435001E0D8
:1052600084F83450072E00D30626E662C4E911659F
:10527000201D00F04AFA04F1180000F046FA2461FB
:10528000C6F107006462A061E56484F8505052469C
:105290004946384600F0C0F82060B8F1000F01D050
:1052A000C8F80040BDE8F08730B5114900E011466C
:1052B0000A688242FBD34B685C18844203D1406881
:1052C00018444860084643681C18944209D1084CA9
:1052D000183C2468A24209D052681A4442600A6805
:1052E00012680260814200D0086030BD0460F9E7B6
:1052F000740000200648416B096829B1416BC968F8
:10530000C9684968816270474FF0FF31FAE70000D1
:105310002000002008484068401C4FF0500080F3F7
:10532000118804D0BFF34F8FBFF36F8FFEE7BFF339
:105330004F8FBFF36F8FFEE77C0000202DE9F04117
:105340000546002700F0DCFA324E306808B9FFF756
:1053500009FF706905424ED1C5B3083568070ED004
:1053600005F00700C0F108000544680707D0502089
:1053700080F31188BFF34F8FBFF36F8FFEE72DB31C
:105380007068854237D82348183001460C6801E020
:1053900020460C466168A94202D221680029F7D153
:1053A00031688C4227D0076821680160606808373F
:1053B000411B10290FD96019420708D0502080F3F3
:1053C0001188BFF34F8FBFF36F8FFEE713E041608B
:1053D0006560FFF769FF61687068401A7060B268C5
:1053E000904200D2B060706901430020C4E900011E
:1053F000F068401CF06000F015FC780707D05020E2
:1054000080F31188BFF34F8FBFF36F8FFEE73846ED
:10541000BDE8F0815C00002010B5031F4FF08074E0
:105420001C601B1F21F001011960191F044B0B6048
:1054300014390A60091F6FF0020244380A6010BD77
:105440001553000830B5244B05685A691489AC849B
:1054500045681488AC841B698D7A4573B1F90040A6
:10546000B1F90210012D08D0022D21D0032D31D128
:1054700003681189598511882AE0002C05DD03682D
:105480009A8CA2F10A025A8505E004DA0268938C2C
:1054900003F10A035385002904DD4068818C01F182
:1054A000060116E016DA4068818CA1F1030110E0D4
:1054B0001968026800EE101ABDEEC00A10EE101A4C
:1054C0005185596800EE101ABDEEC00A10EE101A90
:1054D0004068418530BD0000444B0020C97A4173CB
:1054E0007047000002492422A1F12400FEF770BD9C
:1054F0006A430020F0B5002855D0002953D0027827
:10550000437842EA0322C2F30A020A80437884788D
:10551000DB0843EA4413C3F30A034B808478C5785D
:10552000A40944EA8504057944EA8524C4F30A04FD
:105530008C80057946796D0845EAC615C5F30A05DC
:10554000CD804679C6F301168E724679B609CE72C1
:105550008679C77946EA07268E81067A477A46EA2F
:105560000726CE81867AC77A46EA07260E82067B10
:105570008E74467BCE74867BC77B46EA07268E8276
:10558000067C407CA2F580620A80A3F580634B8094
:10559000A4F5806446EA00208C80A5F58065CD8066
:1055A000A0F580600881F0BD0FB40E4870B50C4CBA
:1055B00005AAA4F1080522600499FAF783FF82B2D4
:1055C0002A8000202060642306490748FEF7A6FAD7
:1055D0002988044800F00AF870BC5DF814FB00004C
:1055E000C0000020F04300209403002070B5154A4D
:1055F00013681C6824F001041C6013681C68E4072D
:10560000F7D1114EF414B34202D90F4D4C3D04E0D2
:105610000E4DAB4203D90C4D503D2C6008E00B4EB3
:105620000A4D603EB83DB34201D9EC6000E0AC6089
:10563000D860106841601068016841F001010160A4
:1056400070BD0000C004002058640240B8600240F1
:10565000134810B50068C16841F01001C1601148DD
:105660000068016841F0010101600F4C0F490C48CE
:105670006288FEF73BFA0E480068C16841F01001ED
:10568000C1600C480068016841F001010160A28816
:105690000649BDE8104080310548FEF727BA0000F2
:1056A0009403002060040020B8000020F044002093
:1056B0001C04002080050020D0E9013201699A60B5
:1056C000D0E901235A604A68824201D182684A6067
:1056D000002202610868401E0860086870470000E8
:1056E000034B036003F15400086080201060704792
:1056F0001801002000F108014FF0FF32C0E901124B
:10570000C1600161002101607047002101617047A3
:1057100030B50B685A1C02D000F1080202E00269A1
:1057200004E02246546825689D42FAD953684B60CC
:1057300099608A60516008610168491C016030BD50
:1057400042684A6093688B60936859609160086111
:105750000168491C01607047502080F31188BFF335
:105760004F8FBFF36F8F0A494868401C486001287B
:105770000CD10848006810F0FF0F07D0502080F3CC
:105780001188BFF34F8FBFF36F8FFEE770470000A4
:105790007C00002004ED00E00849486828B1401E64
:1057A000486001D180F311887047502080F3118840
:1057B000BFF34F8FBFF36F8FFEE700007C00002028
:1057C00070B500282AD0164DA0F1080460686969F8
:1057D000084207D1502080F31188BFF34F8FBFF3E9
:1057E0006F8FFEE722683AB1502080F31188BFF333
:1057F0004F8FBFF36F8FFEE78843606000F080F843
:1058000060686968084468602046FFF74DFD2869B4
:10581000401C2861BDE8704000F004BA70BD000073
:105820005C0000204FF0E02000210161816105490A
:105830004FF47A720968B1FBF2F1491E4161072108
:10584000016170471C00002010B5020014D00F4801
:10585000006B38B1502080F31188BFF34F8FBFF336
:105860006F8FFEE700F04CF800211046FFF7C0FBF9
:1058700000F0D8F9002807D105494FF080500860A2
:10588000BFF34F8FBFF36F8F10BD000020000020CB
:1058900004ED00E010B586B00024039405AA04A925
:1058A00003A80494FFF71CFFDDE903010094CDE990
:1058B000011000230EA11048059A00F014F90F49B9
:1058C0000028C86211D0502080F31188BFF34F8F99
:1058D000BFF36F8F4FF0FF30886201204861CC60CA
:1058E00006B0BDE8104000F041B806B010BD0000A1
:1058F00049444C4500000000B15100082000002040
:105900000248016B491C0163704700002000002021
:105910001448016B11B10121C16170470021C161BF
:105920000169B1FA81F1C1F11F0101EB81020E4958
:1059300051F822306BB101EB820101F108034A6892
:1059400052684A609A4201D152684A60D168016047
:105950007047502080F31188BFF34F8FBFF36F8FD4
:10596000FEE7000020000020400600201CB537485C
:105970000168374A914207D1502080F31188BFF364
:105980004F8FBFF36F8FFEE700683149491E884291
:1059900007D1502080F31188BFF34F8FBFF36F8F73
:1059A000FEE72C4908780190FF20087008788DF8F0
:1059B00000009DF800009DF8002000F0F0009042EB
:1059C00007D0502080F31188BFF34F8FBFF36F8F44
:1059D000FEE79DF80000204C00F0500020700720EA
:1059E000A06005E09DF8002052008DF80020401EC8
:1059F0009DF800201206F5D4A060032807D050209F
:105A000080F31188BFF34F8FBFF36F8FFEE74FF422
:105A10004070A060019808700C482030016841F483
:105A200070010160016841F070410160FFF7FAFE0A
:105A300000206060FAF772FC0848016841F04041BC
:105A40000160FAF757FC00201CBD000000ED00E0EB
:105A500071C20F4100E400E07C00002034EF00E060
:105A600010B5502080F31188BFF34F8FBFF36F8FB5
:105A700000F072F818B104494FF08050086000201F
:105A800080F3118810BD000004ED00E02DE9FF5FF8
:105A90008346DDE90E87994616468A469000FFF751
:105AA0004DFC05001CD05420FFF748FC040014D026
:105AB0000020256384F85100CDE90240CDE900873C
:105AC0004B46324651465846FFF7A2FB2046FFF7A9
:105AD000C7FA012004B0BDE8F09F2846FFF770FE2A
